0298081810999992001010100004+41280+002060SY-MT+0006LEBL V0203601N00211048001CN0180001N1+00561-00141101641ADDAA199000091GA1021+006609999GA2071+048009999GF199999021051008001001051MA1101591101561MD1610081+9999MW1001REMSYN066AAXX  01004 08181 32568 53604 10056 21014 30156 40164 56008 82505;MET059LEBL 010000Z 01004KT 9999 FEW022 BKN165 05/M02 Q1016 NOSIG;EQDQ01+000052SCOTCVQ02+000000PRSWM2Q03  00002PRCP99
0169081810999992001010101004+41280+002060FM-15+0006LEBL V0203301N001010420019N0112651N1+00601-00101999999ADDGA1021+006609999GA2071+042009999GF107991999999999999999999MA1101491999999MW1001REMMET059LEBL 010100Z 33002KT 9999 FEW022 BKN140 06/M01 Q1015 NOSIG;EQDQ01+000000PRSWM2
0168081810999992001010102004+41280+002060FM-15+0006LEBL V0203301N001010570019N0112651N1+00501+00001999999ADDGA1021+006609999GA2071+057009999GF107991999999999999999999MA1101391999999MW1001REMMET058LEBL 010200Z 33002KT 9999 FEW022 BKN190 05/00 Q1014 NOSIG;EQDQ01+000000PRSWM2
0271081810999992001010103004+41280+002060SY-MT+0006LEBL V0200201N00101048001CN0150001N1+00421-00041101451ADDGA1021+006609999GA2071+048009999GF199999021051008001001051MA1101391101371MD1710191+9999MW1001REMSYN066AAXX  01034 08181 42565 60202 10042 21004 30137 40145 57019 82505;MET059LEBL 010300Z 04002KT 9999 FEW022 BKN160 04/M00 Q1014 NOSIG;EQDQ01+000062SCOTCVQ02+000000PRSWM2
0168081810999992001010104304+41280+002060FM-15+0006LEBL V0203601N002112200019N0112651N1+00601+00001999999ADDGA1021+006609999GA2021+057009999GF104991999999999999999999MA1101291999999MW1001REMMET058LEBL 010430Z 36004KT 9999 FEW022 SCT190 06/00 Q1013 NOSIG;EQDQ01+000000PRSWM2
0168081810999992001010105004+41280+002060FM-15+0006LEBL V0203601N003112200019N0112651N1+00601+00001999999ADDGA1021+006609999GA2021+057009999GF104991999999999999999999MA1101291999999MW1001REMMET058LEBL 010500Z 36006KT 9999 FEW022 SCT190 06/00 Q1013 NOSIG;EQDQ01+000000PRSWM2
0310081810999992001010106004+41280+002060SY-MT+0006LEBL V0203601N003110900019N0150001N1+00521+00071101311ADDAA199000091GA1021+006609999GA2021+057009999GF105991021051008001001051KA1120N+00421MA1101291101231MD1710141+9999MW1001REMSYN082AAXX  01064 08181 32565 53606 10052 20007 30123 40131 57014 82505 333 20042 55081;MET058LEBL 010600Z 35006KT 9999 FEW022 SCT190 05/00 Q1013 NOSIG;EQDQ01+000000PRSWM2Q02  00002PRCP99
0168081810999992001010107004+41280+002060FM-15+0006LEBL V0200101N003112200019N0112651N1+00501+00001999999ADDGA1021+006609999GA2021+033009999GF104991999999999999999999MA1101191999999MW1001REMMET058LEBL 010700Z 01006KT 9999 FEW022 SCT110 05/00 Q1012 NOSIG;EQDQ01+000000PRSWM2
0168081810999992001010108004+41280+002060FM-15+0006LEBL V0200101N004112200019N0112651N1+00401+00001999999ADDGA1021+007509999GA2021+030009999GF104991999999999999999999MA1101191999999MW1001REMMET058LEBL 010800Z 01008KT 9999 FEW025 SCT100 04/00 Q1012 NOSIG;EQDQ01+000000PRSWM2
0254081810999992001010109004+41280+002060SY-MT+0006LEBL V0200101N003112200019N0250001N1+00541+00081101251ADDGA1021+006009999GA2021+030009999GF104991021051008001011001MA1101191101191MD1810101+9999MW1001REMSYN066AAXX  01094 08181 42575 40106 10054 20008 30119 40125 58010 82510;MET058LEBL 010900Z 01006KT 9999 FEW020 SCT100 05/01 Q1012 NOSIG;EQDQ01+000000PRSWM2
0168081810999992001010110004+41280+002060FM-15+0006LEBL V0200101N003112200019N0112651N1+00701+00201999999ADDGA1021+005709999GA2021+027009999GF104991999999999999999999MA1101191999999MW1001REMMET058LEBL 011000Z 01006KT 9999 FEW019 SCT090 07/02 Q1012 NOSIG;EQDQ01+000000PRSWM2
0168081810999992001010111004+41280+002060FM-15+0006LEBL V0200101N002112200019N0112651N1+01101+00301999999ADDGA1021+006009999GA2021+027009999GF104991999999999999999999MA1101191999999MW1001REMMET058LEBL 011100Z 01004KT 9999 FEW020 SCT090 11/03 Q1012 NOSIG;EQDQ01+000000PRSWM2
0281081810999992001010112004+41280+002060SY-MT+0006LEBL V0209999V001512200019N0400001N1+01361+00931101201ADDAA199000091GA1021+007509999GA2021+027009999GF103991011051008001071001MA1101081101141MD1710051+9999MW1001REMSYN066AAXX  01124 08181 32582 39903 10136 20093 30114 40120 57005 81570;MET058LEBL 011200Z VRB03KT 9999 FEW025 SCT090 14/08 Q1011 NOSIG;EQDQ01+000000PRSWM2Q02  00002PRCP99
0168081810999992001010113004+41280+002060FM-15+0006LEBL V0202401N005110270019N0112651N1+01301+00801999999ADDGA1021+007509999GA2071+027009999GF107991999999999999999999MA1101081999999MW1001REMMET058LEBL 011300Z 24010KT 9999 FEW025 BKN090 13/08 Q1011 NOSIG;EQDQ01+000000PRSWM2
0168081810999992001010114004+41280+002060FM-15+0006LEBL V0202301N005112200019N0112651N1+01401+00801999999ADDGA1021+007509999GA2021+030009999GF104991999999999999999999MA1100911999999MW1001REMMET058LEBL 011400Z 23010KT 9999 FEW025 SCT100 14/08 Q1009 NOSIG;EQDQ01+000000PRSWM2
0254081810999992001010115004+41280+002060SY-MT+0006LEBL V0202301N003110360019N0300001N1+01301+00821101041ADDGA1021+007509999GA2021+033009999GF106991021051008001051001MA1101021100981MD1710161+9999MW1001REMSYN066AAXX  01154 08181 42580 62306 10130 20082 30098 40104 57016 82550;MET058LEBL 011500Z 23006KT 9999 FEW025 SCT110 13/08 Q1010 NOSIG;EQDQ01+000000PRSWM2
0168081810999992001010116004+41280+002060FM-15+0006LEBL V0202301N003112200019N0112651N1+01201+00901999999ADDGA1021+007509999GA2021+036009999GF104991999999999999999999MA1100911999999MW1001REMMET058LEBL 011600Z 23006KT 9999 FEW025 SCT120 12/09 Q1009 NOSIG;EQDQ01+000000PRSWM2
0191081810999992001010117004+41280+002060FM-15+0006LEBL V0209999C000010360019N0112651N1+01001+00701999999ADDGA1021+003909999GA2021+007509999GA3071+036009999GF107991999999999999999999MA1100911999999MW1001REMMET065LEBL 011700Z 00000KT 9999 FEW013 SCT025 BKN120 10/07 Q1009 NOSIG;EQDQ01+000000PRSWM2
0304081810999992001010118004+41280+002060SY-MT+0006LEBL V0209999C000010360019N0200001N1+00901+00691101001ADDAA199000091GA1021+005409999GA2021+030009999GF105991031081008001051001KA1999M+01401MA1101021100941MD1710041+9999MW1001REMSYN076AAXX  01184 08181 32570 50000 10090 20069 30094 40100 57004 83850 333 10140;MET058LEBL 011800Z 00000KT 9999 SCT018 SCT100 09/07 Q1010 NOSIG;EQDQ01+000000PRSWM2Q02  00002PRCP99
0168081810999992001010119004+41280+002060FM-15+0006LEBL V0202301N002112200019N0112651N1+01001+00901999999ADDGA1021+005409999GA2021+030009999GF104991999999999999999999MA1101021999999MW1001REMMET058LEBL 011900Z 23004KT 9999 SCT018 SCT100 10/09 Q1010 NOSIG;EQDQ01+000000PRSWM2
0168081810999992001010120004+41280+002060FM-15+0006LEBL V0202201N004112200019N0112651N1+01201+01001999999ADDGA1021+003009999GA2021+006009999GF104991999999999999999999MA1101021999999MW1001REMMET058LEBL 012000Z 22008KT 9999 FEW010 SCT020 12/10 Q1010 NOSIG;EQDQ01+000000PRSWM2
0168081810999992001010121004+41280+002060FM-15+0006LEBL V0202301N003612200019N0112651N1+01201+01101999999ADDGA1021+003609999GA2021+005409999GF104991999999999999999999MA1100911999999MW1001REMMET058LEBL 012100Z 23007KT 9999 SCT012 SCT018 12/11 Q1009 NOSIG;EQDQ01+000000PRSWM2
0168081810999992001010122004+41280+002060FM-15+0006LEBL V0203601N001012200019N0112651N1+01001+00801999999ADDGA1021+003609999GA2021+005109999GF104991999999999999999999MA1100911999999MW1001REMMET058LEBL 012200Z 36002KT 9999 SCT012 SCT017 10/08 Q1009 NOSIG;EQDQ01+000000PRSWM2
0168081810999992001010123004+41280+002060FM-15+0006LEBL V0200201N002112200019N0112651N1+00901+00701999999ADDGA1021+003009999GA2021+004209999GF104991999999999999999999MA1100911999999MW1001REMMET058LEBL 012300Z 02004KT 9999 FEW010 SCT014 09/07 Q1009 NOSIG;EQDQ01+000000PRSWM2
0281081810999992001010200004+41280+002060SY-MT+0006LEBL V0200201N002110120019N0300001N1+00841+00691100941ADDAA199000091GA1021+003009999GA2021+004509999GF105991051081008001001001MA1100911100861MD1710041+9999MW1001REMSYN066AAXX  02004 08181 32580 50204 10084 20069 30086 40094 57004 85800;MET058LEBL 020000Z 03002KT 9999 FEW010 SCT015 08/06 Q1009 NOSIG;EQDQ01+000000PRSWM2Q02  00002PRCP99
0168081810999992001010201004+41280+002060FM-15+0006LEBL V0209999C000010480019N0112651N1+00801+00601999999ADDGA1021+004509999GA2071+048009999GF107991999999999999999999MA1100811999999MW1001REMMET058LEBL 020100Z 00000KT 9999 SCT015 BKN160 08/06 Q1008 NOSIG;EQDQ01+000000PRSWM2
0168081810999992001010202004+41280+002060FM-15+0006LEBL V0203601N002110480019N0112651N1+00801+00701999999ADDGA1021+004509999GA2071+048009999GF107991999999999999999999MA1100811999999MW1001REMMET058LEBL 020200Z 36004KT 9999 SCT015 BKN160 08/07 Q1008 NOSIG;EQDQ01+000000PRSWM2
0270081810999992001010203004+41280+002060SY-MT+0006LEBL V0203501N00311045001CN0200001N1+00861+00631100841ADDGA1021+004509999GA2071+045009999GF199999031081008001001021MA1100811100761MD1710101+9999MW1001REMSYN066AAXX  02034 08181 42570 53506 10086 20063 30076 40084 57010 83802;MET058LEBL 020300Z 34002KT 9999 SCT015 BKN150 09/08 Q1008 NOSIG;EQDQ01+000052SCOTCVQ02+000000PRSWM2
0168081810999992001010204004+41280+002060FM-15+0006LEBL V0200401N003110450019N0112651N1+00901+00801999999ADDGA1021+004509999GA2071+045009999GF107991999999999999999999MA1100711999999MW1001REMMET058LEBL 020400Z 04006KT 9999 FEW015 BKN150 09/08 Q1007 NOSIG;EQDQ01+000000PRSWM2
0168081810999992001010205004+41280+002060FM-15+0006LEBL V0200201N002110540019N0112651N1+00801+00701999999ADDGA1021+007509999GA2071+054009999GF107991999999999999999999MA1100711999999MW1001REMMET058LEBL 020500Z 02004KT 9999 FEW025 BKN180 08/07 Q1007 NOSIG;EQDQ01+000000PRSWM2
0281081810999992001010206004+41280+002060SY-MT+0006LEBL V0203501N00211057001CN0200001N1+00941+00781100771ADDAA199000091GA1021+007509999GA2071+057009999GF107991011081008001001021MA1100711100691MD1710071+9999MW1001REMSYN066AAXX  02064 08181 32570 73504 10094 20078 30069 40077 57007 81802;MET058LEBL 020600Z 36004KT 9999 FEW025 BKN190 10/08 Q1007 NOSIG;EQDQ01+000000PRSWM2Q02  00002PRCP99
0168081810999992001010207004+41280+002060FM-15+0006LEBL V0203301N001010600019N0112651N1+00901+00701999999ADDGA1021+007509999GA2071+060009999GF107991999999999999999999MA1100811999999MW1001REMMET058LEBL 020700Z 33002KT 9999 FEW025 BKN200 09/07 Q1008 NOSIG;EQDQ01+000000PRSWM2
0168081810999992001010208004+41280+002060FM-15+0006LEBL V0203501N001010570019N0112651N1+00901+00701999999ADDGA1021+006609999GA2071+057009999GF107991999999999999999999MA1100911999999MW1001REMMET058LEBL 020800Z 35002KT 9999 FEW022 BKN190 09/07 Q1009 NOSIG;EQDQ01+000000PRSWM2
0270081810999992001010209004+41280+002060SY-MT+0006LEBL V0200201N00211057001CN0150001N1+00861+00691100961ADDGA1021+007509999GA2071+057009999GF199999011051008001001021MA1100911100901MD1210131+9999MW1001REMSYN066AAXX  02094 08181 42565 50204 10086 20069 30090 40096 52013 81502;MET058LEBL 020900Z 02004KT 9999 FEW025 BKN190 09/07 Q1009 NOSIG;EQDQ01+000052SCOTCVQ02+000000PRSWM2
0168081810999992001010210004+41280+002060FM-15+0006LEBL V0202601N001512200019N0112651N1+01001+00801999999ADDGA1021+007509999GA2021+063009999GF104991999999999999999999MA1100911999999MW1001REMMET058LEBL 021000Z 26003KT 9999 FEW025 SCT210 10/08 Q1009 NOSIG;EQDQ01+000000PRSWM2
0145081810999992001010211004+41280+002060FM-15+0006LEBL V0202601N002612200019N0112651N1+01301+00901999999ADDGA1021+009009999GF102991999999999999999999MA1100911999999MW1001REMMET051LEBL 021100Z 26005KT 9999 FEW030 13/09 Q1009 NOSIG;EQDQ01+000000PRSWM2
0258081810999992001010212004+41280+002060SY-MT+0006LEBL V0202401N006212200019N0300001N1+01501+00731100911ADDAA199000091GA1021+009009999GF103991011081008001001021MA1100911100861MD1810041+9999MW1001REMSYN066AAXX  02124 08181 32580 32412 10150 20073 30086 40091 58004 81802;MET051LEBL 021200Z 24012KT 9999 FEW030 15/09 Q1009 NOSIG;EQDQ01+000000PRSWM2Q02  00002PRCP99
0145081810999992001010213004+41280+002060FM-15+0006LEBL V0202401N006712200019N0112651N1+01601+00701999999ADDGA1021+007509999GF102991999999999999999999MA1100811999999MW1001REMMET051LEBL 021300Z 24013KT 9999 FEW025 16/07 Q1008 NOSIG;EQDQ01+000000PRSWM2
0168081810999992001010214004+41280+002060FM-15+0006LEBL V0202501N007212200019N0112651N1+01601+00801999999ADDGA1021+007509999GA2021+030009999GF104991999999999999999999MA1100811999999MW1001REMMET058LEBL 021400Z 25014KT 9999 SCT025 SCT100 16/08 Q1008 NOSIG;EQDQ01+000000PRSWM2
0293081810999992001010215004+41280+002060SY-MT+0006LEBL V0202801N00621030001CN0350001N1+01581+00361100871ADDGA1021+004209999GA2021+007509999GA3071+030009999GF199999031061004501071011MA1100811100821MD1510041+9999MW1001REMSYN066AAXX  02154 08181 42481 62812 10158 20036 30082 40087 55004 83671;MET065LEBL 021500Z 28016KT 9999 FEW014 SCT025 BKN100 16/03 Q1008 NOSIG;EQDQ01+000062SCOTCVQ02+000000PRSWM2
0145081810999992001010216004+41280+002060FM-15+0006LEBL V0202701N007212200019N0112651N1+01501+00301999999ADDGA1021+007509999GF102991999999999999999999MA1100911999999MW1001REMMET051LEBL 021600Z 27014KT 9999 FEW025 15/03 Q1009 NOSIG;EQDQ01+000000PRSWM2
0145081810999992001010217004+41280+002060FM-15+0006LEBL V0202701N005112200019N0112651N1+01401+00401999999ADDGA1021+006609999GF104991999999999999999999MA1101021999999MW1001REMMET051LEBL 021700Z 27010KT 9999 SCT022 14/04 Q1010 NOSIG;EQDQ01+000000PRSWM2
0281081810999992001010218004+41280+002060SY-MT+0006LEBL V0202701N006212200019N0400001N1+01321+00341101091ADDAA199000091GA1021+007509999GF102991021051008001001001KA1999M+01641MA1101081101031MD1210211+9999MW1001REMSYN076AAXX  02184 08181 32582 22712 10132 20034 30103 40109 52021 82500 333 10164;MET051LEBL 021800Z 27012KT 9999 FEW025 13/03 Q1011 NOSIG;EQDQ01+000000PRSWM2Q02  00002PRCP99
0145081810999992001010219004+41280+002060FM-15+0006LEBL V0202501N004112200019N0112651N1+01201+00401999999ADDGA1021+007509999GF102991999999999999999999MA1101191999999MW1001REMMET051LEBL 021900Z 25008KT 9999 FEW025 12/04 Q1012 NOSIG;EQDQ01+000000PRSWM2
0097081810999992001010220004+41280+002060FM-15+0006LEBL V0202301N00511220001CN0099001N1+01201+00401999999ADDMA1101191999999MW1001REMMET045LEBL 022000Z 23010KT CAVOK 12/04 Q1012 NOSIG;EQDQ01+000000PRSWM2
0209081810999992001010221004+41280+002060SY-MT+0006LEBL V0202501N006212200019N0400001N1+01241+00281101321ADDGF102991021001999999011001MA1101291101261MD1210231+9999MW1001REMSYN066AAXX  02214 08181 42982 22512 10124 20028 30126 40132 52023 82010;MET045LEBL 022100Z 25012KT CAVOK 12/02 Q1013 NOSIG;EQDQ01+000000PRSWM2
0097081810999992001010222004+41280+002060FM-15+0006LEBL V0202701N00671220001CN0099001N1+01101+00201999999ADDMA1101291999999MW1001REMMET045LEBL 022200Z 27013KT CAVOK 11/02 Q1013 NOSIG;EQDQ01+000000PRSWM2
0168081810999992001010223004+41280+002060FM-15+0006LEBL V0202801N008212200019N0112651N1+01201+00201999999ADDGA1021+007809999GA2021+069009999GF104991999999999999999999MA1101391999999MW1001REMMET058LEBL 022300Z 28016KT 9999 FEW026 SCT230 12/02 Q1014 NOSIG;EQDQ01+000000PRSWM2
0281081810999992001010300004+41280+002060SY-MT+0006LEBL V0202901N00621063001CN0200001N1+01101+00141101511ADDAA199000091GA1021+007509999GA2071+063009999GF107991021051008001021081MA1101491101451MD1210191+9999MW1001REMSYN066AAXX  03004 08181 32570 72912 10110 20014 30145 40151 52019 82528;MET058LEBL 030000Z 28014KT 9999 FEW025 BKN210 11/02 Q1015 NOSIG;EQDQ01+000000PRSWM2Q02  00002PRCP99
0168081810999992001010301004+41280+002060FM-15+0006LEBL V0202701N007710690019N0112651N1+01101+00201999999ADDGA1021+006909999GA2071+069009999GF107991999999999999999999MA1101491999999MW1001REMMET058LEBL 030100Z 27015KT 9999 FEW023 BKN230 11/02 Q1015 NOSIG;EQDQ01+000000PRSWM2
0145081810999992001010302004+41280+002060FM-15+0006LEBL V0202801N006212200019N0112651N1+01001+00201999999ADDGA1021+007809999GF102991999999999999999999MA1101491999999MW1001REMMET051LEBL 030200Z 28012KT 9999 FEW026 10/02 Q1015 NOSIG;EQDQ01+000000PRSWM2
0254081810999992001010303004+41280+002060SY-MT+0006LEBL V0203101N004112200019N0200001N1+01061+00211101631ADDGA1021+006909999GA2021+063009999GF103991011051008001001021MA1101591101571MD1210121+9999MW1001REMSYN066AAXX  03034 08181 42570 33108 10106 20021 30157 40163 52012 81502;MET058LEBL 030300Z 29009KT 9999 FEW023 SCT210 11/02 Q1016 NOSIG;EQDQ01+000000PRSWM2
0168081810999992001010304004+41280+002060FM-15+0006LEBL V0202101N001010600019N0112651N1+01001+00201999999ADDGA1021+006609999GA2071+060009999GF107991999999999999999999MA1101591999999MW1001REMMET058LEBL 030400Z 21002KT 9999 FEW022 BKN200 10/02 Q1016 NOSIG;EQDQ01+000000PRSWM2
0168081810999992001010305004+41280+002060FM-15+0006LEBL V0202501N003112200019N0112651N1+01001+00201999999ADDGA1021+007509999GA2021+048009999GF104991999999999999999999MA1101591999999MW1001REMMET058LEBL 030500Z 25006KT 9999 FEW025 SCT160 10/02 Q1016 NOSIG;EQDQ01+000000PRSWM2
0310081810999992001010306004+41280+002060SY-MT+0006LEBL V0202401N004112200019N0200001N1+01061+00211101681ADDAA199000091GA1021+007509999GA2021+045009999GF104991011051008001001021KA1120N+00861MA1101691101621MD1210051+9999MW1001REMSYN082AAXX  03064 08181 32570 42408 10106 20021 30162 40168 52005 81502 333 20086 55057;MET058LEBL 030600Z VRB03KT 9999 FEW025 SCT150 11/02 Q1017 NOSIG;EQDQ01+000000PRSWM2Q02  00002PRCP99
0168081810999992001010307004+41280+002060FM-15+0006LEBL V0202001N002110390019N0112651N1+01001+00201999999ADDGA1021+007509999GA2071+039009999GF107991999999999999999999MA1101691999999MW1001REMMET058LEBL 030700Z 20004KT 9999 FEW025 BKN130 10/02 Q1017 NOSIG;EQDQ01+000000PRSWM2
0168081810999992001010308004+41280+002060FM-15+0006LEBL V0201001N001010390019N0112651N1+01001+00301999999ADDGA1021+007509999GA2071+039009999GF107991999999999999999999MA1101691999999MW1001REMMET058LEBL 030800Z 10002KT 9999 FEW025 BKN130 10/03 Q1017 NOSIG;EQDQ01+000000PRSWM2
0231081810999992001010309004+41280+002060SY-MT+0006LEBL V0203401N002112200019N0300001N1+01001+00061101841ADDGA1021+006909999GF102991011081008001041001MA1101801101781MD1210161+9999MW1001REMSYN066AAXX  03094 08181 42580 23404 10100 20006 30178 40184 52016 81840;MET051LEBL 030900Z 30003KT 9999 FEW023 10/03 Q1018 NOSIG;EQDQ01+000000PRSWM2
0145081810999992001010310004+41280+002060FM-15+0006LEBL V0203001N001512200019N0112651N1+01201+00301999999ADDGA1021+007209999GF102991999999999999999999MA1101901999999MW1001REMMET051LEBL 031000Z 30003KT 9999 FEW024 12/03 Q1019 NOSIG;EQDQ01+000000PRSWM2
0145081810999992001010311004+41280+002060FM-15+0006LEBL V0209999C000012200019N0112651N1+01301+00301999999ADDGA1021+007209999GF102991999999999999999999MA1101801999999MW1001REMMET051LEBL 031100Z 00000KT 9999 FEW024 13/03 Q1018 NOSIG;EQDQ01+000000PRSWM2
0282081810999992001010312004+41280+002060SY-MT+0006LEBL V0202901N001012200019N0300001N1+01441+00501101821ADDAA199000091GA1021+006609999GF199999011011008001001001MA1101801101761MD1710021+9999MW1001REMSYN066AAXX  03124 08181 32580 12902 10144 20050 30176 40182 57002 81100;MET059LEBL 031200Z 32002KT 230V060 9999 FEW022 15/05 Q1018 NOSIG;EQDQ01+000012SCOTCVQ02+000000PRSWM2Q03  00002PRCP99
0168081810999992001010313004+41280+002060FM-15+0006LEBL V0202401N006212200019N0112651N1+01401+00401999999ADDGA1021+006609999GA2021+063009999GF104991999999999999999999MA1101691999999MW1001REMMET058LEBL 031300Z 24012KT 9999 FEW022 SCT210 14/04 Q1017 NOSIG;EQDQ01+000000PRSWM2
0168081810999992001010314004+41280+002060FM-15+0006LEBL V0202401N005112200019N0112651N1+01301+00501999999ADDGA1021+007509999GA2021+060009999GF104991999999999999999999MA1101591999999MW1001REMMET058LEBL 031400Z 24010KT 9999 FEW025 SCT200 13/05 Q1016 NOSIG;EQDQ01+000000PRSWM2
0254081810999992001010315004+41280+002060SY-MT+0006LEBL V0202401N006210900019N0250001N1+01321+00661101661ADDGA1021+007509999GA2021+060009999GF105991021051008001001051MA1101591101581MD1710161+9999MW1001REMSYN066AAXX  03154 08181 42575 52412 10132 20066 30158 40166 57016 82505;MET058LEBL 031500Z 24012KT 9999 FEW025 SCT200 13/07 Q1016 NOSIG;EQDQ01+000000PRSWM2
0168081810999992001010316004+41280+002060FM-15+0006LEBL V0202601N003110540019N0112651N1+01301+00301999999ADDGA1021+007509999GA2071+054009999GF107991999999999999999999MA1101591999999MW1001REMMET058LEBL 031600Z 26006KT 9999 FEW025 BKN180 13/03 Q1016 NOSIG;EQDQ01+000000PRSWM2
0168081810999992001010317004+41280+002060FM-15+0006LEBL V0202501N004110540019N0112651N1+01201+00301999999ADDGA1021+007509999GA2071+054009999GF107991999999999999999999MA1101591999999MW1001REMMET058LEBL 031700Z 25008KT 9999 FEW025 BKN180 12/03 Q1016 NOSIG;EQDQ01+000000PRSWM2
0320081810999992001010318004+41280+002060SY-MT+0006LEBL V0202401N003112200019N0150001N1+01081+00241101641ADDAA199000091GA1021+007509999GA2071+054009999GF199999011051008001001041KA1999M+01441MA1101591101561MD1710021+9999MW1001REMSYN076AAXX  03184 08181 32565 42406 10108 20024 30156 40164 57002 81504 333 10144;MET058LEBL 031800Z 24006KT 9999 FEW025 BKN180 11/03 Q1016 NOSIG;EQDQ01+000042SCOTCVQ02+000000PRSWM2Q03  00002PRCP99
0168081810999992001010319004+41280+002060FM-15+0006LEBL V0202601N004112200019N0112651N1+01001+00401999999ADDGA1021+009009999GA2021+054009999GF104991999999999999999999MA1101591999999MW1001REMMET058LEBL 031900Z 26008KT 9999 FEW030 SCT180 10/04 Q1016 NOSIG;EQDQ01+000000PRSWM2
0168081810999992001010320004+41280+002060FM-15+0006LEBL V0202601N004112200019N0112651N1+01101+00401999999ADDGA1021+009009999GA2021+045009999GF104991999999999999999999MA1101591999999MW1001REMMET058LEBL 032000Z 26008KT 9999 FEW030 SCT150 11/04 Q1016 NOSIG;EQDQ01+000000PRSWM2
0270081810999992001010321004+41280+002060SY-MT+0006LEBL V0202601N00261030001CN0150001N1+00921+00361101611ADDGA1021+009009999GA2071+030009999GF199999011051008001071001MA1101491101551MD1710071+9999MW1001REMSYN066AAXX  03214 08181 42565 62605 10092 20036 30155 40161 57007 81570;MET058LEBL 032100Z 26005KT 9999 FEW030 BKN100 09/04 Q1015 NOSIG;EQDQ01+000062SCOTCVQ02+000000PRSWM2
0168081810999992001010322004+41280+002060FM-15+0006LEBL V0202601N003110540019N0112651N1+01001+00401999999ADDGA1021+007509999GA2071+054009999GF107991999999999999999999MA1101491999999MW1001REMMET058LEBL 032200Z 26006KT 9999 FEW025 BKN180 10/04 Q1015 NOSIG;EQDQ01+000000PRSWM2
0168081810999992001010323004+41280+002060FM-15+0006LEBL V0202301N002110540019N0112651N1+01001+00401999999ADDGA1021+007509999GA2071+054009999GF107991999999999999999999MA1101491999999MW1001REMMET058LEBL 032300Z 23004KT 9999 FEW025 BKN180 10/04 Q1015 NOSIG;EQDQ01+000000PRSWM2
0281081810999992001010400004+41280+002060SY-MT+0006LEBL V0203001N002112200019N0150001N1+01101+00811101431ADDAA199000091GA1021+007509999GA2021+048009999GF103991011051008001041041MA1101391101351MD1710181+9999MW1001REMSYN066AAXX  04004 08181 32565 33004 10110 20081 30135 40143 57018 81544;MET058LEBL 040000Z 30004KT 9999 FEW025 SCT160 09/03 Q1014 NOSIG;EQDQ01+000000PRSWM2Q02  00002PRCP99
0168081810999992001010401004+41280+002060FM-15+0006LEBL V0202801N002112200019N0112651N1+00901+00301999999ADDGA1021+007509999GA2021+054009999GF104991999999999999999999MA1101291999999MW1001REMMET058LEBL 040100Z 28004KT 9999 FEW025 SCT180 09/03 Q1013 NOSIG;EQDQ01+000000PRSWM2
0168081810999992001010402004+41280+002060FM-15+0006LEBL V0203401N001012200019N0112651N1+00901+00301999999ADDGA1021+007509999GA2021+027009999GF104991999999999999999999MA1101291999999MW1001REMMET058LEBL 040200Z 34002KT 9999 FEW025 SCT090 09/03 Q1013 NOSIG;EQDQ01+000000PRSWM2
0254081810999992001010403004+41280+002060SY-MT+0006LEBL V0202701N004110900019N0150001N1+01121+00511101241ADDGA1021+007509999GA2021+048009999GF105991011051008001041041MA1101191101161MD1710191+9999MW1001REMSYN066AAXX  04034 08181 42565 52708 10112 20051 30116 40124 57019 81544;MET058LEBL 040300Z 23007KT 9999 FEW025 SCT160 11/04 Q1012 NOSIG;EQDQ01+000000PRSWM2
0168081810999992001010404004+41280+002060FM-15+0006LEBL V0202401N003112200019N0112651N1+01101+00501999999ADDGA1021+007509999GA2021+027009999GF104991999999999999999999MA1101081999999MW1001REMMET058LEBL 040400Z 24006KT 9999 FEW025 SCT090 11/05 Q1011 NOSIG;EQDQ01+000000PRSWM2
0145081810999992001010405004+41280+002060FM-15+0006LEBL V0202201N003112200019N0112651N1+01101+00601999999ADDGA1021+009009999GF102991999999999999999999MA1101021999999MW1001REMMET051LEBL 040500Z 22006KT 9999 FEW030 11/06 Q1010 NOSIG;EQDQ01+000000PRSWM2
0287081810999992001010406004+41280+002060SY-MT+0006LEBL V0202301N002612200019N0150001N1+01001+00461101121ADDAA199000091GA1021+009009999GF103991011051008001031001KA1120N+00801MA1101021101061MD1710161+9999MW1001REMSYN082AAXX  04064 08181 32565 32305 10100 20046 30106 40112 57016 81530 333 20080 55054;MET051LEBL 040600Z 23005KT 9999 FEW030 10/04 Q1010 NOSIG;EQDQ01+000000PRSWM2Q02  00002PRCP99
0145081810999992001010407004+41280+002060FM-15+0006LEBL V0202501N005112200019N0112651N1+01101+00601999999ADDGA1021+009009999GF102991999999999999999999MA1101081999999MW1001REMMET051LEBL 040700Z 25010KT 9999 FEW030 11/06 Q1011 NOSIG;EQDQ01+000000PRSWM2
0176081810999992001010408004+41280+002060FM-15+0006LEBL V0202001N002112200019N0112651N1+01001+00501999999ADDGA1021+004209999GA2021+009009999GF104991999999999999999999MA1101291999999MW1001REMMET066LEBL 040800Z 20004KT 170V250 9999 FEW030 SCT014 10/05 Q1013 NOSIG;EQDQ01+000000PRSWM2
0254081810999992001010409004+41280+002060SY-MT+0006LEBL V0202401N002112200019N0180001N1+01301+00491101341ADDGA1021+007509999GA2021+021009999GF103991011051008001031001MA1101291101261MD1210221+9999MW1001REMSYN066AAXX  04094 08181 42568 32404 10130 20049 30126 40134 52022 81530;MET058LEBL 040900Z 24004KT 9999 FEW025 SCT070 13/05 Q1013 NOSIG;EQDQ01+000000PRSWM2
0145081810999992001010410004+41280+002060FM-15+0006LEBL V0202001N005112200019N0112651N1+01401+00601999999ADDGA1021+006609999GF102991999999999999999999MA1101391999999MW1001REMMET051LEBL 041000Z 20010KT 9999 FEW022 14/06 Q1014 NOSIG;EQDQ01+000000PRSWM2
0145081810999992001010411004+41280+002060FM-15+0006LEBL V0203101N008212200019N0112651N1+01601+00401999999ADDGA1021+006009999GF102991999999999999999999MA1101291999999MW1001REMMET051LEBL 041100Z 31016KT 9999 FEW020 16/04 Q1013 NOSIG;EQDQ01+000000PRSWM2
0163081810999992001010412004+41280+002060FM-12+0006LEBL V0202901N010312200019N0200001N1+01661+00201101401ADDAA199000091GF102991021051008001001001MA1999999101321MD1510061+9999REMSYN066AAXX  04124 08181 32570 22920 10166 20020 30132 40140 55006 82500;EQDQ01  00002PRCP99
0168081810999992001010412304+41280+002060FM-15+0006LEBL V0203101N007212200019N0112651N1+01701+00201999999ADDGA1021+006609999GA2021+015009999GF104991999999999999999999MA1101391999999MW1001REMMET058LEBL 041230Z 31014KT 9999 FEW022 SCT055 17/02 Q1014 NOSIG;EQDQ01+000000PRSWM2
0179081810999992001010413004+41280+002060FM-15+0006LEBL V0203201N007712200019N0112651N1+01601+00201999999ADDGA1021+006609999GA2021+015009999GF104991999999999999999999MA1101391999999MW1001OC101291REMMET061LEBL 041300Z 32015G25KT 9999 FEW022 SCT055 16/02 Q1014 NOSIG;EQDQ01+000000PRSWM2
0168081810999992001010414004+41280+002060FM-15+0006LEBL V0202901N006212200019N0112651N1+01601+00201999999ADDGA1021+006609999GA2021+015009999GF104991999999999999999999MA1101491999999MW1001REMMET058LEBL 041400Z 29012KT 9999 FEW022 SCT050 16/02 Q1015 NOSIG;EQDQ01+000000PRSWM2
0262081810999992001010415004+41280+002060SY-MT+0006LEBL V0203201N003112200019N0200001N1+01641+00221101591ADDGA1021+006609999GA2021+033009999GF103991021051008001001051MA1101591101511MD1210191+9999MW1001REMSYN066AAXX  04154 08181 42570 33206 10164 20022 30151 40159 52019 82505;MET066LEBL 041500Z 32008KT 280V350 9999 FEW022 SCT110 16/01 Q1016 NOSIG;EQDQ01+000000PRSWM2
0168081810999992001010416004+41280+002060FM-15+0006LEBL V0203001N007212200019N0112651N1+01601+00001999999ADDGA1021+006609999GA2021+036009999GF104991999999999999999999MA1101591999999MW1001REMMET058LEBL 041600Z 30014KT 9999 FEW022 SCT120 16/00 Q1016 NOSIG;EQDQ01+000000PRSWM2
0168081810999992001010417004+41280+002060FM-15+0006LEBL V0202401N003112200019N0112651N1+01301+00201999999ADDGA1021+006609999GA2021+021009999GF104991999999999999999999MA1101691999999MW1001REMMET058LEBL 041700Z 24006KT 9999 FEW022 SCT075 13/02 Q1017 NOSIG;EQDQ01+000000PRSWM2
0304081810999992001010418004+41280+002060SY-MT+0006LEBL V0202501N005112200019N0200001N1+01221+00331101751ADDAA199000091GA1021+006609999GA2021+024009999GF103991021051008001011001KA1999M+01681MA1101691101671MD1210161+9999MW1001REMSYN076AAXX  04184 08181 32570 32510 10122 20033 30167 40175 52016 82510 333 10168;MET058LEBL 041800Z 26010KT 9999 FEW022 SCT080 12/04 Q1017 NOSIG;EQDQ01+000000PRSWM2Q02  00002PRCP99
0168081810999992001010419004+41280+002060FM-15+0006LEBL V0202301N002112200019N0112651N1+01101+00401999999ADDGA1021+006609999GA2021+024009999GF104991999999999999999999MA1101801999999MW1001REMMET058LEBL 041900Z 23004KT 9999 FEW022 SCT080 11/04 Q1018 NOSIG;EQDQ01+000000PRSWM2
0168081810999992001010420004+41280+002060FM-15+0006LEBL V0202601N007212200019N0112651N1+01301+00501999999ADDGA1021+006609999GA2021+024009999GF104991999999999999999999MA1101801999999MW1001REMMET058LEBL 042000Z 26014KT 9999 FEW022 SCT080 13/05 Q1018 NOSIG;EQDQ01+000000PRSWM2
0254081810999992001010421004+41280+002060SY-MT+0006LEBL V0202701N003112200019N0150001N1+01081+00411101861ADDGA1021+007509999GA2021+024009999GF104991011051008001011001MA1101801101781MD1210111+9999MW1001REMSYN066AAXX  04214 08181 42565 42706 10108 20041 30178 40186 52011 81510;MET058LEBL 042100Z 27006KT 9999 FEW025 SCT080 10/04 Q1018 NOSIG;EQDQ01+000000PRSWM2
0145081810999992001010422004+41280+002060FM-15+0006LEBL V0202801N004612200019N0112651N1+01201+00301999999ADDGA1021+006909999GF102991999999999999999999MA1101801999999MW1001REMMET051LEBL 042200Z 28009KT 9999 FEW023 12/03 Q1018 NOSIG;EQDQ01+000000PRSWM2
0145081810999992001010423004+41280+002060FM-15+0006LEBL V0202801N005112200019N0112651N1+01201+00201999999ADDGA1021+009009999GF102991999999999999999999MA1101691999999MW1001REMMET051LEBL 042300Z 28010KT 9999 FEW030 12/02 Q1017 NOSIG;EQDQ01+000000PRSWM2
0281081810999992001010500004+41280+002060SY-MT+0006LEBL V0202701N002112200019N0120001N1+01181+00261101741ADDAA199000091GA1021+009009999GA2021+024009999GF104991011051008001011001MA1101691101661MD1710121+9999MW1001REMSYN066AAXX  05004 08181 32562 42704 10118 20026 30166 40174 57012 81510;MET058LEBL 050000Z 27004KT 9999 FEW030 SCT080 12/03 Q1017 NOSIG;EQDQ01+000000PRSWM2Q02  00002PRCP99
0168081810999992001010501004+41280+002060FM-15+0006LEBL V0209999C000012200019N0112651N1+00901+00301999999ADDGA1021+009009999GA2021+024009999GF104991999999999999999999MA1101591999999MW1001REMMET058LEBL 050100Z 00000KT 9999 FEW030 SCT080 09/03 Q1016 NOSIG;EQDQ01+000000PRSWM2
0168081810999992001010502004+41280+002060FM-15+0006LEBL V0209999C000012200019N0112651N1+00701+00301999999ADDGA1021+009009999GA2021+024009999GF104991999999999999999999MA1101591999999MW1001REMMET058LEBL 050200Z 00000KT 9999 FEW030 SCT080 07/03 Q1016 NOSIG;EQDQ01+000000PRSWM2
0254081810999992001010503004+41280+002060SY-MT+0006LEBL V0209999C000010360019N0120001N1+00741+00261101601ADDGA1021+008409999GA2021+024009999GF105991011051008001011001MA1101591101521MD1710141+9999MW1001REMSYN066AAXX  05034 08181 42562 50000 10074 20026 30152 40160 57014 81510;MET058LEBL 050300Z 00000KT 9999 FEW028 SCT080 07/02 Q1016 NOSIG;EQDQ01+000000PRSWM2
0145081810999992001010504004+41280+002060FM-15+0006LEBL V0200101N001512200019N0112651N1+00801+00301999999ADDGA1021+007509999GF102991999999999999999999MA1101491999999MW1001REMMET051LEBL 050400Z 01003KT 9999 FEW025 08/03 Q1015 NOSIG;EQDQ01+000000PRSWM2
0145081810999992001010505004+41280+002060FM-15+0006LEBL V0200101N001512200019N0112651N1+00701+00301999999ADDGA1021+006909999GF102991999999999999999999MA1101391999999MW1001REMMET051LEBL 050500Z 01003KT 9999 FEW023 07/03 Q1014 NOSIG;EQDQ01+000000PRSWM2
0303081810999992001010506004+41280+002060SY-MT+0006LEBL V0203401N003112200019N0120001N1+00701+00261101361ADDAA199000091GA1021+007509999GF199999011051008001001001KA1120N+00521MA1101291101301MD1710241+9999MW1001REMSYN082AAXX  05064 08181 32562 13406 10070 20026 30130 40136 57024 81500 333 20052 55073;MET051LEBL 050600Z 01002KT 9999 FEW025 06/03 Q1013 NOSIG;EQDQ01+000012SCOTCVQ02+000000PRSWM2Q03  00002PRCP99
0145081810999992001010507004+41280+002060FM-15+0006LEBL V0209999C000012200019N0112651N1+00501+00301999999ADDGA1021+007809999GF102991999999999999999999MA1101291999999MW1001REMMET051LEBL 050700Z 00000KT 9999 FEW026 05/03 Q1013 NOSIG;EQDQ01+000000PRSWM2
0145081810999992001010508004+41280+002060FM-15+0006LEBL V0200201N001512200019N0112651N1+00701+00401999999ADDGA1021+007209999GF102991999999999999999999MA1101191999999MW1001REMMET051LEBL 050800Z 02003KT 9999 FEW024 07/04 Q1012 NOSIG;EQDQ01+000000PRSWM2
0270081810999992001010509004+41280+002060SY-MT+0006LEBL V0200201N00211030001CN0150001N1+00861+00401101241ADDGA1021+007509999GA2071+030009999GF199999011051008001011081MA1101191101181MD1710121+9999MW1001REMSYN066AAXX  05094 08181 42565 60204 10086 20040 30118 40124 57012 81518;MET058LEBL 050900Z 02004KT 9999 FEW025 BKN100 08/04 Q1012 NOSIG;EQDQ01+000062SCOTCVQ02+000000PRSWM2
0168081810999992001010510004+41280+002060FM-15+0006LEBL V0202401N005110330019N0112651N1+01301+00601999999ADDGA1021+007509999GA2071+033009999GF107991999999999999999999MA1101191999999MW1001REMMET058LEBL 051000Z 24010KT 9999 FEW025 BKN110 13/06 Q1012 NOSIG;EQDQ01+000000PRSWM2
0168081810999992001010511004+41280+002060FM-15+0006LEBL V0202501N004110300019N0112651N1+01301+00901999999ADDGA1021+007509999GA2071+030009999GF107991999999999999999999MA1101191999999MW1001REMMET058LEBL 051100Z 25008KT 9999 SCT025 BKN100 13/09 Q1012 NOSIG;EQDQ01+000000PRSWM2
0304081810999992001010512004+41280+002060SY-MT+0006LEBL V0202401N00411060001CN0200001N1+01341+00861101161ADDAA199000091GA1021+007509999GA2021+033009999GA3071+060009999GF108991021051008001011071MA1101081101101MD1710081+9999MW1001REMSYN066AAXX  05124 08181 32570 82408 10134 20086 30110 40116 57008 82517;MET065LEBL 051200Z 24008KT 9999 SCT025 SCT110 BKN200 13/09 Q1011 NOSIG;EQDQ01+000000PRSWM2Q02  00002PRCP99
0191081810999992001010513004+41280+002060FM-15+0006LEBL V0202401N005110600019N0112651N1+01401+01001999999ADDGA1021+007509999GA2021+033009999GA3071+060009999GF107991999999999999999999MA1100911999999MW1001REMMET065LEBL 051300Z 24010KT 9999 FEW025 SCT110 BKN200 14/10 Q1009 NOSIG;EQDQ01+000000PRSWM2
0168081810999992001010514004+41280+002060FM-15+0006LEBL V0202501N007210360019N0112651N1+01401+01001999999ADDGA1021+007509999GA2071+036009999GF107991999999999999999999MA1100811999999MW1001REMMET058LEBL 051400Z 25014KT 9999 FEW025 BKN120 14/10 Q1008 NOSIG;EQDQ01+000000PRSWM2
0270081810999992001010515004+41280+002060SY-MT+0006LEBL V0202501N00721066001CN0150001N1+01401+00931100841ADDGA1021+007509999GA2071+066009999GF199999021081008001031071MA1100811100791MD1710311+9999MW1001REMSYN066AAXX  05154 08181 42565 62514 10140 20093 30079 40084 57031 82837;MET058LEBL 051500Z 25014KT 9999 FEW025 BKN220 14/10 Q1008 NOSIG;EQDQ01+000062SCOTCVQ02+000000PRSWM2
0168081810999992001010516004+41280+002060FM-15+0006LEBL V0202501N007210600019N0112651N1+01401+01001999999ADDGA1021+007509999GA2071+060009999GF107991999999999999999999MA1100711999999MW1001REMMET058LEBL 051600Z 25014KT 9999 FEW025 BKN200 14/10 Q1007 NOSIG;EQDQ01+000000PRSWM2
0168081810999992001010517004+41280+002060FM-15+0006LEBL V0202401N006210600019N0112651N1+01301+01001999999ADDGA1021+007509999GA2071+060009999GF107991999999999999999999MA1100711999999MW1001REMMET058LEBL 051700Z 24012KT 9999 FEW025 BKN200 13/10 Q1007 NOSIG;EQDQ01+000000PRSWM2
0320081810999992001010518004+41280+002060SY-MT+0006LEBL V0202301N00411054001CN0200001N1+01321+00971100801ADDAA199000091GA1021+007509999GA2071+054009999GF199999021081008001031071KA1999M+01461MA1100711100741MD1710051+9999MW1001REMSYN076AAXX  05184 08181 32570 62308 10132 20097 30074 40080 57005 82837 333 10146;MET058LEBL 051800Z 23008KT 9999 FEW025 BKN180 13/10 Q1007 NOSIG;EQDQ01+000062SCOTCVQ02+000000PRSWM2Q03  00002PRCP99
0168081810999992001010519004+41280+002060FM-15+0006LEBL V0202201N005110540019N0112651N1+01301+01001999999ADDGA1021+007509999GA2071+054009999GF107991999999999999999999MA1100611999999MW1001REMMET058LEBL 051900Z 22010KT 9999 FEW025 BKN180 13/10 Q1006 NOSIG;EQDQ01+000000PRSWM2
0168081810999992001010520004+41280+002060FM-15+0006LEBL V0202201N004110540019N0112651N1+01301+01001999999ADDGA1021+007509999GA2071+054009999GF107991999999999999999999MA1100711999999MW1001REMMET058LEBL 052000Z 22008KT 9999 FEW025 BKN180 13/10 Q1007 NOSIG;EQDQ01+000000PRSWM2
0270081810999992001010521004+41280+002060SY-MT+0006LEBL V0202201N00411048001CN0200001N1+01361+01051100711ADDGA1021+007209999GA2071+048009999GF199999021081008001031071MA1100611100661MD1710091+9999MW1001REMSYN066AAXX  05214 08181 42570 52208 10136 20105 30066 40071 57009 82837;MET058LEBL 052100Z 22006KT 9999 FEW024 BKN160 14/11 Q1006 NOSIG;EQDQ01+000052SCOTCVQ02+000000PRSWM2
0169081810999992001010522004+41280+002060FM-15+0006LEBL V0202401N006210480019N0112651N1+99999+99999999999ADDGA1021+007509999GA2071+048009999GF107991999999999999999999MA1100611999999MW1001REMMET059LEBL 052200Z 24012KT 9999 FEW025 BKN160 116/11 Q1006 NOSIG;EQDQ01+000000PRSWM2
0168081810999992001010523004+41280+002060FM-15+0006LEBL V0202501N007210510019N0112651N1+01601+01101999999ADDGA1021+007509999GA2071+051009999GF107991999999999999999999MA1100611999999MW1001REMMET058LEBL 052300Z 25014KT 9999 FEW025 BKN170 16/11 Q1006 NOSIG;EQDQ01+000000PRSWM2
0297081810999992001010600004+41280+002060SY-MT+0006LEBL V0202501N00871060001CN0200001N1+01641+01281100671ADDAA199000091GA1021+009009999GA2071+060009999GF199999021081008001031071MA1100511100621MD1710041+9999MW1001REMSYN066AAXX  06004 08181 32570 52517 10164 20128 30062 40067 57004 82837;MET058LEBL 060000Z 25016KT 9999 FEW030 BKN200 16/11 Q1005 NOSIG;EQDQ01+000052SCOTCVQ02+000000PRSWM2Q03  00002PRCP99
0168081810999992001010601004+41280+002060FM-15+0006LEBL V0202501N008210600019N0112651N1+01601+01101999999ADDGA1021+009009999GA2071+060009999GF107991999999999999999999MA1100511999999MW1001REMMET058LEBL 060100Z 25016KT 9999 FEW030 BKN200 16/11 Q1005 NOSIG;EQDQ01+000000PRSWM2
0168081810999992001010602004+41280+002060FM-15+0006LEBL V0202501N008210600019N0112651N1+01601+01101999999ADDGA1021+009009999GA2071+060009999GF107991999999999999999999MA1100511999999MW1001REMMET058LEBL 060200Z 25016KT 9999 FEW030 BKN200 16/11 Q1005 NOSIG;EQDQ01+000000PRSWM2
0270081810999992001010603004+41280+002060SY-MT+0006LEBL V0202401N00621060001CN0200001N1+01521+01111100591ADDGA1021+009009999GA2071+060009999GF199999021081008001031071MA1100411100541MD1710081+9999MW1001REMSYN066AAXX  06034 08181 42570 52412 10152 20111 30054 40059 57008 82837;MET058LEBL 060300Z 24012KT 9999 FEW030 BKN200 15/11 Q1004 NOSIG;EQDQ01+000052SCOTCVQ02+000000PRSWM2
0168081810999992001010605004+41280+002060FM-15+0006LEBL V0202501N001510600019N0112651N1+01401+01001999999ADDGA1021+009009999GA2071+060009999GF107991999999999999999999MA1100411999999MW1001REMMET058LEBL 060500Z 25003KT 9999 FEW030 BKN200 14/10 Q1004 NOSIG;EQDQ01+000000PRSWM2
0326081810999992001010606004+41280+002060SY-MT+0006LEBL V0202201N00511063001CN0150001N1+01461+01081100441ADDAA199000091GA1021+007509999GA2071+063009999GF199999021081008001031071KA1120N+00501MA1100411100391MD1710151+9999MW1001REMSYN082AAXX  06064 08181 32565 52210 10146 20108 30039 40044 57015 82837 333 20050 55013;MET058LEBL 060600Z 22010KT 9999 FEW025 BKN210 14/11 Q1004 NOSIG;EQDQ01+000052SCOTCVQ02+000000PRSWM2Q03  00002PRCP99
0168081810999992001010607004+41280+002060FM-15+0006LEBL V0202401N006210630019N0112651N1+01501+01101999999ADDGA1021+007509999GA2071+063009999GF107991999999999999999999MA1100411999999MW1001REMMET058LEBL 060700Z 24012KT 9999 FEW025 BKN210 15/11 Q1004 NOSIG;EQDQ01+000000PRSWM2
0168081810999992001010608004+41280+002060FM-15+0006LEBL V0202501N003610630019N0112651N1+01501+01001999999ADDGA1021+007509999GA2071+063009999GF107991999999999999999999MA1100411999999MW1001REMMET058LEBL 060800Z 25007KT 9999 FEW025 BKN210 15/10 Q1004 NOSIG;EQDQ01+000000PRSWM2
0254081810999992001010609004+41280+002060SY-MT+0006LEBL V0201401N00211060001CN0200001N1+01421+00931100421ADDGA1021+007509999GA2071+060009999GF107991021081008001001071MA1100511100341MD1510021+9999MW1001REMSYN066AAXX  06094 08181 42570 71404 10142 20093 30034 40042 55002 82807;MET058LEBL 060900Z 12006KT 9999 FEW025 BKN200 14/11 Q1005 NOSIG;EQDQ01+000000PRSWM2
0168081810999992001010610004+41280+002060FM-15+0006LEBL V0200701N003110600019N0112651N1+01401+01201999999ADDGA1021+007509999GA2071+060009999GF107991999999999999999999MA1100511999999MW1001REMMET058LEBL 061000Z 07006KT 9999 FEW025 BKN200 14/12 Q1005 NOSIG;EQDQ01+000000PRSWM2
0168081810999992001010611004+41280+002060FM-15+0006LEBL V0200901N007210600019N0112651N1+01501+01201999999ADDGA1021+007509999GA2071+060009999GF107991999999999999999999MA1100611999999MW1001REMMET058LEBL 061100Z 09014KT 9999 FEW025 BKN200 15/12 Q1006 NOSIG;EQDQ01+000000PRSWM2
0191081810999992001010612004+41280+002060FM-15+0006LEBL V0200601N003110600019N0080001N1+01501+01201999999ADDGA1021+003609999GA2021+007509999GA3071+060009999GF107991999999999999999999MA1100511999999MW1001REMMET065LEBL 061200Z 06006KT 8000 FEW012 SCT025 BKN200 15/12 Q1005 NOSIG;EQDQ01+000000PRSWM2
0189081810999992001010612054+41280+002060FM-16+0006LEBL V0200701N003110075019N0070001N1+01401+01201999999ADDGA1021+003009999GA2071+007509999GF107991999999999999999999MA1100511999999MW1811REMMET063LEBL 061205Z 07006KT 7000 SHRA FEW010 BKN025 14/12 Q1005 NOSIG;EQDQ01+000003PRSWM1Q02    003PRSWM1
0168081810999992001010613004+41280+002060FM-15+0006LEBL V0200701N005110075019N0070001N1+01401+01201999999ADDGA1021+003009999GA2071+007509999GF107991999999999999999999MA1100411999999MW1001REMMET058LEBL 061300Z 07010KT 7000 FEW010 BKN025 14/12 Q1004 NOSIG;EQDQ01+000000PRSWM2
0191081810999992001010614004+41280+002060FM-15+0006LEBL V0200801N003610075019N0070001N1+01401+01201999999ADDGA1021+003009999GA2071+007509999GA3071+060009999GF107991999999999999999999MA1100411999999MW1001REMMET065LEBL 061400Z 08007KT 7000 FEW010 BKN025 BKN200 14/12 Q1004 NOSIG;EQDQ01+000000PRSWM2
0309081810999992001010615004+41280+002060SY-MT+0006LEBL V0200601N00311030001CN0060001N1+01361+01181100541ADDAY121031AY221031GA1021+003009999GA2021+006609999GA3071+030009999GF108991051081004501071021MA1100511100461MD1310021+9999MW1501MW2511REMSYN072AAXX  06154 08181 41456 80606 10136 20118 30046 40054 53002 75022 85872;MET069LEBL 061500Z 06006KT 6000 -DZ FEW010 SCT022 BKN100 14/12 Q1005 NOSIG;EQDQ01    003PRSWM1
0168081810999992001010616004+41280+002060FM-15+0006LEBL V0203501N003110096019N0112651N1+01301+00901999999ADDGA1021+006609999GA2071+009609999GF107991999999999999999999MA1100611999999MW1001REMMET058LEBL 061600Z 35006KT 9999 SCT022 BKN032 13/09 Q1006 NOSIG;EQDQ01+000000PRSWM2
0168081810999992001010617004+41280+002060FM-15+0006LEBL V0203501N002610135019N0112651N1+01301+00701999999ADDGA1021+007509999GA2071+013509999GF107991999999999999999999MA1100611999999MW1001REMMET058LEBL 061700Z 35005KT 9999 FEW025 BKN045 13/07 Q1006 NOSIG;EQDQ01+000000PRSWM2
0168081810999992001010618004+41280+002060FM-15+0006LEBL V0203501N003110180019N0112651N1+01301+00701999999ADDGA1021+007509999GA2071+018009999GF107991999999999999999999MA1100711999999MW1001REMMET058LEBL 061800Z 35006KT 9999 FEW025 BKN062 13/07 Q1007 NOSIG;EQDQ01+000000PRSWM2
0168081810999992001010619004+41280+002060FM-15+0006LEBL V0203501N003610180019N0112651N1+01201+00601999999ADDGA1021+007509999GA2071+018009999GF107991999999999999999999MA1100911999999MW1001REMMET058LEBL 061900Z 35007KT 9999 FEW025 BKN062 12/06 Q1009 NOSIG;EQDQ01+000000PRSWM2
0171081810999992001010620004+41280+002060FM-15+0006LEBL V0203601N004110210019N0112651N1+01101+00501999999ADDGA1021+007509029GA2071+021009999GF107991999999999999999999MA1101021999999MW1001REMMET061LEBL 062000Z 36008KT 9999 FEW025TCU BKN070 11/05 Q1010 NOSIG;EQDQ01+000000PRSWM2
0254081810999992001010621004+41280+002060SY-MT+0006LEBL V0203401N00621024001CN0200001N1+01221+00681101051ADDGA1021+007509999GA2071+024009999GF107991021081008001071999MA1101021100921MD1210261+9999MW1001REMSYN066AAXX  06214 08181 42570 73412 10122 20068 30092 40105 52026 8287/;MET058LEBL 062100Z 34012KT 9999 FEW025 BKN080 10/04 Q1010 NOSIG;EQDQ01+000000PRSWM2
0168081810999992001010622004+41280+002060FM-15+0006LEBL V0203301N005110240019N0112651N1+01001+00401999999ADDGA1021+007509999GA2071+024009999GF107991999999999999999999MA1101081999999MW1001REMMET058LEBL 062200Z 33010KT 9999 FEW025 BKN080 10/04 Q1011 NOSIG;EQDQ01+000000PRSWM2
0168081810999992001010623004+41280+002060FM-15+0006LEBL V0203201N003110240019N0112651N1+01001+00401999999ADDGA1021+007509999GA2071+024009999GF107991999999999999999999MA1101191999999MW1001REMMET058LEBL 062300Z 32006KT 9999 FEW025 BKN080 10/04 Q1012 NOSIG;EQDQ01+000000PRSWM2
0281081810999992001010700004+41280+002060SY-MT+0006LEBL V0203501N00211054001CN0150001N1+01021+00691101221ADDAA199000021GA1021+007509999GA2071+054009999GF199999021081008001071051MA1101191101141MD1210171+9999MW1001REMSYN066AAXX  07004 08181 32565 63504 10102 20069 30114 40122 52017 82875;MET058LEBL 070000Z 35004KT 9999 FEW025 BKN180 08/04 Q1012 NOSIG;EQDQ01+000062SCOTCVQ02+000000PRSWM2
0168081810999992001010701004+41280+002060FM-15+0006LEBL V0203301N004112200019N0112651N1+00801+00401999999ADDGA1021+007509999GA2021+054009999GF104991999999999999999999MA1101291999999MW1001REMMET058LEBL 070100Z 33008KT 9999 FEW025 SCT180 08/04 Q1013 NOSIG;EQDQ01+000000PRSWM2
0168081810999992001010702004+41280+002060FM-15+0006LEBL V0203201N003112200019N0112651N1+00801+00301999999ADDGA1021+007509999GA2021+054009999GF104991999999999999999999MA1101291999999MW1001REMMET058LEBL 070200Z 32006KT 9999 FEW025 SCT180 08/03 Q1013 NOSIG;EQDQ01+000000PRSWM2
0231081810999992001010703004+41280+002060SY-MT+0006LEBL V0203601N002112200019N0150001N1+00921+00571101381ADDGA1021+007809999GF102991011051008001001021MA1101391101301MD1210161+9999MW1001REMSYN066AAXX  07034 08181 42565 23604 10092 20057 30130 40138 52016 81502;MET051LEBL 070300Z 35004KT 9999 FEW026 08/03 Q1014 NOSIG;EQDQ01+000000PRSWM2
0168081810999992001010704004+41280+002060FM-15+0006LEBL V0200101N003112200019N0112651N1+00701+00301999999ADDGA1021+007809999GA2021+054009999GF104991999999999999999999MA1101291999999MW1001REMMET058LEBL 070400Z 01006KT 9999 FEW026 SCT180 07/03 Q1013 NOSIG;EQDQ01+000000PRSWM2
0145081810999992001010705004+41280+002060FM-15+0006LEBL V0203601N002112200019N0112651N1+00701+00301999999ADDGA1021+007809999GF102991999999999999999999MA1101391999999MW1001REMMET051LEBL 070500Z 36004KT 9999 FEW026 07/03 Q1014 NOSIG;EQDQ01+000000PRSWM2
0303081810999992001010706004+41280+002060SY-MT+0006LEBL V0203101N003112200019N0150001N1+00741+00311101411ADDAA199000091GA1021+007809999GF199999011081008001001001KA1120N+00741MA1101391101331MD1210031+9999MW1001REMSYN082AAXX  07064 08181 32565 13106 10074 20031 30133 40141 52003 81800 333 20074 55004;MET051LEBL 070600Z 32005KT 9999 FEW026 06/02 Q1014 NOSIG;EQDQ01+000012SCOTCVQ02+000000PRSWM2Q03  00002PRCP99
0168081810999992001010707004+41280+002060FM-15+0006LEBL V0203601N002112200019N0112651N1+00601+00201999999ADDGA1021+007809999GA2021+060009999GF104991999999999999999999MA1101491999999MW1001REMMET058LEBL 070700Z 36004KT 9999 FEW026 SCT200 06/02 Q1015 NOSIG;EQDQ01+000000PRSWM2
0168081810999992001010708004+41280+002060FM-15+0006LEBL V0202101N001012200019N0112651N1+00501+00201999999ADDGA1021+007809999GA2021+060009999GF104991999999999999999999MA1101491999999MW1001REMMET058LEBL 070800Z 21002KT 9999 FEW026 SCT200 05/02 Q1015 NOSIG;EQDQ01+000000PRSWM2
0168081810999992001010709004+41280+002060FM-15+0006LEBL V0203601N001012200019N0112651N1+00701+00301999999ADDGA1021+007809999GA2021+060009999GF104991999999999999999999MA1101491999999MW1001REMMET058LEBL 070900Z 36002KT 9999 FEW026 SCT200 07/03 Q1015 NOSIG;EQDQ01+000000PRSWM2
0168081810999992001010710004+41280+002060FM-15+0006LEBL V0203601N001512200019N0112651N1+00901+00401999999ADDGA1021+007809999GA2021+060009999GF104991999999999999999999MA1101591999999MW1001REMMET058LEBL 071000Z 36003KT 9999 FEW026 SCT200 09/04 Q1016 NOSIG;EQDQ01+000000PRSWM2
0176081810999992001010711004+41280+002060FM-15+0006LEBL V0203501N002612200019N0112651N1+01001+00401999999ADDGA1021+007509999GA2021+060009999GF104991999999999999999999MA1101491999999MW1001REMMET066LEBL 071100Z 35005KT 330V030 9999 FEW025 SCT200 10/04 Q1015 NOSIG;EQDQ01+000000PRSWM2
0266081810999992001010712004+41280+002060SY-MT+0006LEBL V0203401N003612200019N0200001N1+01131+00361101561ADDAA199000091GA1021+007509999GF103991011011008001041021MA1101491101501MD1810031+9999MW1001REMSYN066AAXX  07124 08181 32570 33407 10113 20036 30150 40156 58003 81142;MET059LEBL 071200Z 34007KT 310V010 9999 FEW025 11/04 Q1015 NOSIG;EQDQ01+000000PRSWM2Q02  00002PRCP99
0145081810999992001010713004+41280+002060FM-15+0006LEBL V0202101N003612200019N0112651N1+01101+00501999999ADDGA1021+007509999GF102991999999999999999999MA1101391999999MW1001REMMET051LEBL 071300Z 21007KT 9999 FEW025 11/05 Q1014 NOSIG;EQDQ01+000000PRSWM2
0145081810999992001010714004+41280+002060FM-15+0006LEBL V0202201N003112200019N0112651N1+01201+00401999999ADDGA1021+007509999GF102991999999999999999999MA1101391999999MW1001REMMET051LEBL 071400Z 22006KT 9999 FEW025 12/04 Q1014 NOSIG;EQDQ01+000000PRSWM2
0231081810999992001010715004+41280+002060SY-MT+0006LEBL V0202201N003112200019N0300001N1+01191+00411101481ADDGA1021+007509999GF102991021041008001001021MA1101391101421MD1610081+9999MW1001REMSYN066AAXX  07154 08181 42580 22206 10119 20041 30142 40148 56008 82402;MET051LEBL 071500Z 21003KT 9999 FEW025 12/04 Q1014 NOSIG;EQDQ01+000000PRSWM2
0145081810999992001010716004+41280+002060FM-15+0006LEBL V0203301N004112200019N0112651N1+01101+00301999999ADDGA1021+007509999GF102991999999999999999999MA1101491999999MW1001REMMET051LEBL 071600Z 33008KT 9999 FEW025 11/03 Q1015 NOSIG;EQDQ01+000000PRSWM2
0145081810999992001010717004+41280+002060FM-15+0006LEBL V0203201N002612200019N0112651N1+00901+00201999999ADDGA1021+007509999GF102991999999999999999999MA1101491999999MW1001REMMET051LEBL 071700Z 32005KT 9999 FEW025 09/02 Q1015 NOSIG;EQDQ01+000000PRSWM2
0297081810999992001010718004+41280+002060SY-MT+0006LEBL V0203101N001512200019N0300001N1+00791+00181101591ADDAA199000091GA1021+007509999GF199999011041008001001001KA1999M+01261MA1101491101531MD1210111+9999MW1001REMSYN076AAXX  07184 08181 32580 13103 10079 20018 30153 40159 52011 81400 333 10126;MET051LEBL 071800Z 31002KT 9999 FEW025 07/02 Q1015 NOSIG;EQDQ01+000012SCOTCVQ02+000000PRSWM2Q03  00002PRCP99
0145081810999992001010719004+41280+002060FM-15+0006LEBL V0203401N001512200019N0112651N1+00701+00201999999ADDGA1021+007509999GF102991999999999999999999MA1101591999999MW1001REMMET051LEBL 071900Z 34003KT 9999 FEW025 07/02 Q1016 NOSIG;EQDQ01+000000PRSWM2
0145081810999992001010720004+41280+002060FM-15+0006LEBL V0203601N001012200019N0112651N1+00701+00201999999ADDGA1021+007509999GF102991999999999999999999MA1101591999999MW1001REMMET051LEBL 072000Z 36002KT 9999 FEW025 07/02 Q1016 NOSIG;EQDQ01+000000PRSWM2
0145081810999992001010721004+41280+002060FM-15+0006LEBL V0203501N003112200019N0112651N1+00701+00201999999ADDGA1021+007509999GF102991999999999999999999MA1101591999999MW1001REMMET051LEBL 072100Z 35006KT 9999 FEW025 07/02 Q1016 NOSIG;EQDQ01+000000PRSWM2
0145081810999992001010722004+41280+002060FM-15+0006LEBL V0200101N002112200019N0112651N1+00601+00201999999ADDGA1021+007509999GF102991999999999999999999MA1101691999999MW1001REMMET051LEBL 072200Z 01004KT 9999 FEW025 06/02 Q1017 NOSIG;EQDQ01+000000PRSWM2
0145081810999992001010723004+41280+002060FM-15+0006LEBL V0203601N001012200019N0112651N1+00601+00201999999ADDGA1021+007509999GF102991999999999999999999MA1101691999999MW1001REMMET051LEBL 072300Z 36002KT 9999 FEW025 06/02 Q1017 NOSIG;EQDQ01+000000PRSWM2
0145081810999992001010800004+41280+002060FM-15+0006LEBL V0203401N002112200019N0112651N1+00501+00201999999ADDGA1021+007509999GF102991999999999999999999MA1101691999999MW1001REMMET051LEBL 080000Z 34004KT 9999 FEW025 05/02 Q1017 NOSIG;EQDQ01+000000PRSWM2
0145081810999992001010801004+41280+002060FM-15+0006LEBL V0203501N001012200019N0112651N1+00401+00101999999ADDGA1021+007509999GF102991999999999999999999MA1101691999999MW1001REMMET051LEBL 080100Z 35002KT 9999 FEW025 04/01 Q1017 NOSIG;EQDQ01+000000PRSWM2
0145081810999992001010802004+41280+002060FM-15+0006LEBL V0203301N002112200019N0112651N1+00401+00201999999ADDGA1021+007509999GF102991999999999999999999MA1101691999999MW1001REMMET051LEBL 080200Z 33004KT 9999 FEW025 04/02 Q1017 NOSIG;EQDQ01+000000PRSWM2
0263081810999992001010803004+41280+002060SY-MT+0006LEBL V0203601N002112200019N0300001N1+00441+00181101701ADDGA1021+007509999GF199999011081008001001001MA1101691101621MD1410001+9999MW1001REMSYN066AAXX  08034 08181 42580 13604 10044 20018 30162 40170 51000 81800;MET051LEBL 080300Z 02004KT 9999 FEW025 04/01 Q1017 NOSIG;EQDQ01+000012SCOTCVQ02+000012APCTENQ03+000000PRSWM2
0145081810999992001010804004+41280+002060FM-15+0006LEBL V0200201N002112200019N0112651N1+00401+00101999999ADDGA1021+007509999GF102991999999999999999999MA1101691999999MW1001REMMET051LEBL 080400Z 02004KT 9999 FEW025 04/01 Q1017 NOSIG;EQDQ01+000000PRSWM2
0145081810999992001010805004+41280+002060FM-15+0006LEBL V0203401N003112200019N0112651N1+00401+00101999999ADDGA1021+007509999GF102991999999999999999999MA1101591999999MW1001REMMET051LEBL 080500Z 34006KT 9999 FEW025 04/01 Q1016 NOSIG;EQDQ01+000000PRSWM2
0311081810999992001010806004+41280+002060SY-MT+0006LEBL V0203501N003112200019N0300001N1+00461+00041101651ADDAA199000091GA1021+007509999GF199999011081008001001001KA1120N+00211MA1101591101571MD1810051+9999MW1001REMSYN082AAXX  08064 08181 32580 13506 10046 20004 30157 40165 58005 81800 333 20021 55075;MET059LEBL 080600Z 35005KT 320V020 9999 FEW025 04/01 Q1016 NOSIG;EQDQ01+000012SCOTCVQ02+000000PRSWM2Q03  00002PRCP99
0145081810999992001010807004+41280+002060FM-15+0006LEBL V0203401N003112200019N0112651N1+00601+00001999999ADDGA1021+007509999GF102991999999999999999999MA1101591999999MW1001REMMET051LEBL 080700Z 34006KT 9999 FEW025 06/00 Q1016 NOSIG;EQDQ01+000000PRSWM2
0097081810999992001010808004+41280+002060FM-15+0006LEBL V0203401N00261220001CN0099001N1+00601+00001999999ADDMA1101691999999MW1001REMMET045LEBL 080800Z 34005KT CAVOK 06/00 Q1017 NOSIG;EQDQ01+000000PRSWM2
0209081810999992001010809004+41280+002060SY-MT+0006LEBL V0203501N003112200019N0550001N1+00701+00031101721ADDGF101991011081008001011001MA1101691101661MD1010001+9999MW1001REMSYN066AAXX  08094 08181 42585 13506 10070 20003 30166 40172 50000 81810;MET045LEBL 080900Z 35006KT CAVOK 07/00 Q1017 NOSIG;EQDQ01+000000PRSWM2
0145081810999992001010810004+41280+002060FM-15+0006LEBL V0200201N004612200019N0112651N1+00801+00101999999ADDGA1021+007509999GF102991999999999999999999MA1101801999999MW1001REMMET051LEBL 081000Z 02009KT 9999 FEW025 08/01 Q1018 NOSIG;EQDQ01+000000PRSWM2
0154081810999992001010811004+41280+002060FM-15+0006LEBL V0203001N004612200019N0112651N1+01001-00101999999ADDGA1021+007509999GF102991999999999999999999MA1101801999999MW1001REMMET060LEBL 081100Z 30009KT 280V340 9999 FEW025 10/M01 Q1018 NOSIG;EQDQ01+000000PRSWM2
0283081810999992001010812004+41280+002060SY-MT+0006LEBL V0203401N003112200019N0350001N1+01081-00021101751ADDAA199000091GA1021+007509999GF199999011081008001031001MA1101691101691MD1210031+9999MW1001REMSYN066AAXX  08124 08181 32581 13406 10108 21002 30169 40175 52003 81830;MET060LEBL 081200Z 34006KT 310V030 9999 FEW025 10/M01 Q1017 NOSIG;EQDQ01+000012SCOTCVQ02+000000PRSWM2Q03  00002PRCP99
0146081810999992001010813004+41280+002060FM-15+0006LEBL V0201901N001012200019N0112651N1+01201-00101999999ADDGA1021+007509999GF102991999999999999999999MA1101691999999MW1001REMMET052LEBL 081300Z 19002KT 9999 FEW025 12/M01 Q1017 NOSIG;EQDQ01+000000PRSWM2
0146081810999992001010814004+41280+002060FM-15+0006LEBL V0203001N003112200019N0112651N1+01201-00101999999ADDGA1021+006909999GF102991999999999999999999MA1101691999999MW1001REMMET052LEBL 081400Z 30006KT 9999 FEW023 12/M01 Q1017 NOSIG;EQDQ01+000000PRSWM2
0146081810999992001010815004+41280+002060FM-15+0006LEBL V0203401N001512200019N0112651N1+01201-00101999999ADDGA1021+007209999GF102991999999999999999999MA1101691999999MW1001REMMET052LEBL 081500Z 34003KT 9999 FEW024 12/M01 Q1017 NOSIG;EQDQ01+000000PRSWM2
0146081810999992001010815304+41280+002060FM-15+0006LEBL V0202901N005712200019N0112651N1+01201-00201999999ADDGA1021+006909999GF102991999999999999999999MA1101691999999MW1001REMMET052LEBL 081530Z 29011KT 9999 FEW023 12/M02 Q1017 NOSIG;EQDQ01+000000PRSWM2
0146081810999992001010816004+41280+002060FM-15+0006LEBL V0203001N005712200019N0112651N1+01101-00101999999ADDGA1021+007509999GF102991999999999999999999MA1101691999999MW1001REMMET052LEBL 081600Z 30011KT 9999 FEW025 11/M01 Q1017 NOSIG;EQDQ01+000000PRSWM2
0146081810999992001010817004+41280+002060FM-15+0006LEBL V0203201N005712200019N0112651N1+01001-00201999999ADDGA1021+006909999GF102991999999999999999999MA1101691999999MW1001REMMET052LEBL 081700Z 32011KT 9999 FEW023 10/M02 Q1017 NOSIG;EQDQ01+000000PRSWM2
0145081810999992001010818004+41280+002060FM-15+0006LEBL V0203001N003112200019N0112651N1+00901+00001999999ADDGA1021+007809999GF102991999999999999999999MA1101801999999MW1001REMMET051LEBL 081800Z 30006KT 9999 FEW026 09/00 Q1018 NOSIG;EQDQ01+000000PRSWM2
0145081810999992001010819004+41280+002060FM-15+0006LEBL V0203401N002612200019N0112651N1+00801+00001999999ADDGA1021+007509999GF102991999999999999999999MA1101901999999MW1001REMMET051LEBL 081900Z 34005KT 9999 FEW025 08/00 Q1019 NOSIG;EQDQ01+000000PRSWM2
0097081810999992001010820004+41280+002060FM-15+0006LEBL V0203501N00261220001CN0099001N1+00701+00001999999ADDMA1101901999999MW1001REMMET045LEBL 082000Z 35005KT CAVOK 07/00 Q1019 NOSIG;EQDQ01+000000PRSWM2
0203081810999992001010821004+41280+002060SY-MT+0006LEBL V0203301N005112200019N0300001N1+00901+00021102001ADDGF100991001001999999001001MA1101901101941MD1210141+9999MW1001REMSYN060AAXX  08214 08181 42980 03310 10090 20002 30194 40200 52014;MET045LEBL 082100Z 32008KT CAVOK 08/00 Q1019 NOSIG;EQDQ01+000000PRSWM2
0097081810999992001010822004+41280+002060FM-15+0006LEBL V0200201N00511220001CN0099001N1+00601+00001999999ADDMA1102001999999MW1001REMMET045LEBL 082200Z 02010KT CAVOK 06/00 Q1020 NOSIG;EQDQ01+000000PRSWM2
0097081810999992001010823004+41280+002060FM-15+0006LEBL V0200301N00211220001CN0099001N1+00601+00001999999ADDMA1102001999999MW1001REMMET045LEBL 082300Z 03004KT CAVOK 06/00 Q1020 NOSIG;EQDQ01+000000PRSWM2
0230081810999992001010900004+41280+002060SY-MT+0006LEBL V0203601N003112200019N0300001N1+00631+00031102021ADDAA199000091GF100991001001999999001001MA1102001101961MD1210021+9999MW1001REMSYN060AAXX  09004 08181 32980 03606 10063 20003 30196 40202 52002;MET045LEBL 090000Z 36006KT CAVOK 06/00 Q1020 NOSIG;EQDQ01+000000PRSWM2Q02  00002PRCP99
0097081810999992001010901004+41280+002060FM-15+0006LEBL V0209999999999220001CN0099001N1+00601+00001999999ADDMA1101901999999MW1001REMMET045LEBL 090100Z VRB03KT CAVOK 06/00 Q1019 NOSIG;EQDQ01+000000PRSWM2
0097081810999992001010902004+41280+002060FM-15+0006LEBL V0200201N00411220001CN0099001N1+00501+00001999999ADDMA1102001999999MW1001REMMET045LEBL 090200Z 02008KT CAVOK 05/00 Q1020 NOSIG;EQDQ01+000000PRSWM2
0203081810999992001010903004+41280+002060SY-MT+0006LEBL V0203501N003112200019N0300001N1+00441+00011101961ADDGF100991001001999999001001MA1101901101901MD1810061+9999MW1001REMSYN060AAXX  09034 08181 42980 03506 10044 20001 30190 40196 58006;MET045LEBL 090300Z 35006KT CAVOK 04/00 Q1019 NOSIG;EQDQ01+000000PRSWM2
0098081810999992001010904004+41280+002060FM-15+0006LEBL V0203501N00311220001CN0099001N1+00401+00001999999ADDMA1101901999999MW1001REMMET046LEBL 090400Z 35006KT CAVOK 04/M00 Q1019 NOSIG;EQDQ01+000000PRSWM2
0098081810999992001010905004+41280+002060FM-15+0006LEBL V0203601N00411220001CN0099001N1+00401+00001999999ADDMA1101801999999MW1001REMMET046LEBL 090500Z 36008KT CAVOK 04/M00 Q1018 NOSIG;EQDQ01+000000PRSWM2
0268081810999992001010906004+41280+002060SY-MT+0006LEBL V0203501N005112200019N0300001N1+00361+00101101931ADDAA199000091GF100991001001999999001001KA1120N+00321MA1101901101871MD1710031+9999MW1001REMSYN076AAXX  09064 08181 32980 03510 10036 20010 30187 40193 57003 333 20032 55083;MET054LEBL 090600Z 35010KT 340V040 CAVOK 03/M01 Q1019 NOSIG;EQDQ01+000000PRSWM2Q02  00002PRCP99
0098081810999992001010907004+41280+002060FM-15+0006LEBL V0203501N00511220001CN0099001N1+00301-00101999999ADDMA1101901999999MW1001REMMET046LEBL 090700Z 35010KT CAVOK 03/M01 Q1019 NOSIG;EQDQ01+000000PRSWM2
0098081810999992001010908004+41280+002060FM-15+0006LEBL V0203501N00411220001CN0099001N1+00301-00101999999ADDMA1101901999999MW1001REMMET046LEBL 090800Z 35008KT CAVOK 03/M01 Q1019 NOSIG;EQDQ01+000000PRSWM2
0210081810999992001010909004+41280+002060SY-MT+0006LEBL V0203601N003112200019N0300001N1+00361-00141101961ADDGF104991001001999999001051MA1101901101881MD1210031+9999MW1001REMSYN066AAXX  09094 08181 42980 43606 10036 21014 30188 40196 52003 80005;MET046LEBL 090900Z 36006KT CAVOK 03/M01 Q1019 NOSIG;EQDQ01+000000PRSWM2
0169081810999992001010910004+41280+002060FM-15+0006LEBL V0203601N002610540019N0112651N1+00601-00101999999ADDGA1021+006909999GA2071+054009999GF107991999999999999999999MA1101901999999MW1001REMMET059LEBL 091000Z 36005KT 9999 FEW023 BKN180 06/M01 Q1019 NOSIG;EQDQ01+000000PRSWM2
0169081810999992001010911004+41280+002060FM-15+0006LEBL V0203601N003110540019N0112651N1+00801-00101999999ADDGA1021+007509999GA2071+054009999GF107991999999999999999999MA1101901999999MW1001REMMET059LEBL 091100Z 36006KT 9999 FEW025 BKN180 08/M01 Q1019 NOSIG;EQDQ01+000000PRSWM2
0281081810999992001010912004+41280+002060SY-MT+0006LEBL V0203601N00311054001CN0200001N1+00841-00021101841ADDAA199000091GA1021+007509999GA2071+054009999GF107991031051008001001071MA1101801101761MD1710121+9999MW1001REMSYN066AAXX  09124 08181 32570 73606 10084 21002 30176 40184 57012 83507;MET058LEBL 091200Z 36006KT 9999 SCT025 BKN180 08/00 Q1018 NOSIG;EQDQ01+000000PRSWM2Q02  00002PRCP99
0168081810999992001010913004+41280+002060FM-15+0006LEBL V0203601N002110540019N0112651N1+00901+00001999999ADDGA1021+006609999GA2071+054009999GF107991999999999999999999MA1101691999999MW1001REMMET058LEBL 091300Z 36004KT 9999 SCT022 BKN180 09/00 Q1017 NOSIG;EQDQ01+000000PRSWM2
0168081810999992001010914004+41280+002060FM-15+0006LEBL V0203601N002110540019N0112651N1+01001+00201999999ADDGA1021+008409999GA2071+054009999GF107991999999999999999999MA1101591999999MW1001REMMET058LEBL 091400Z 36004KT 9999 SCT028 BKN180 10/02 Q1016 NOSIG;EQDQ01+000000PRSWM2
0280081810999992001010915004+41280+002060SY-MT+0006LEBL V0202601N00311007501CN0200001N1+01181+00671101611ADDGA1021+006009029GA2071+007509999GA3021+057009999GF107991061081008001001051MA1101591101551MD1710271+9999MW1001REMSYN066AAXX  09154 08181 42570 72606 10118 20067 30155 40161 57027 86805;MET068LEBL 091500Z 23011KT 9999 FEW020TCU BKN025 SCT190 12/07 Q1016 NOSIG;EQDQ01+000000PRSWM2
0184081810999992001010916004+41280+002060FM-15+0006LEBL V0202301N00671220001CN0112651N1+01201+00701999999ADDGA1021+006309029GA2071+007809999GA3021+054009999MA1101491999999MW1001REMMET068LEBL 091600Z 23013KT 9999 FEW021TCU BKN026 SCT180 12/07 Q1015 NOSIG;EQDQ01+000042SCOTCVQ02+000000PRSWM2
0158081810999992001010917004+41280+002060FM-15+0006LEBL V0202401N00821220001CN0112651N1+01201+00701999999ADDGA1071+006309999GA2021+054009999MA1101491999999MW1001REMMET058LEBL 091700Z 24016KT 9999 BKN021 SCT180 12/07 Q1015 NOSIG;EQDQ01+000042SCOTCVQ02+000000PRSWM2
0304081810999992001010918004+41280+002060SY-MT+0006LEBL V0202501N00411033001CN0200001N1+01121+00601101531ADDAA199000091GA1021+006909999GA2071+033009999GF107991041081008001021001KA1999M+01221MA1101491101471MD1710081+9999MW1001REMSYN076AAXX  09184 08181 32570 72508 10112 20060 30147 40153 57008 84820 333 10122;MET058LEBL 091800Z 25010KT 9999 SCT023 BKN110 11/06 Q1015 NOSIG;EQDQ01+000000PRSWM2Q02  00002PRCP99
0158081810999992001010919004+41280+002060FM-15+0006LEBL V0202601N00311220001CN0112651N1+01101+00601999999ADDGA1071+006609999GA2021+033009999MA1101491999999MW1001REMMET058LEBL 091900Z 26006KT 9999 BKN022 SCT110 11/06 Q1015 NOSIG;EQDQ01+000042SCOTCVQ02+000000PRSWM2
0168081810999992001010920004+41280+002060FM-15+0006LEBL V0202601N005110078019N0112651N1+01101+00701999999ADDGA1071+007809999GA2071+027009999GF107991999999999999999999MA1101491999999MW1001REMMET058LEBL 092000Z 26010KT 9999 BKN026 BKN090 11/07 Q1015 NOSIG;EQDQ01+000000PRSWM2
0254081810999992001010921004+41280+002060SY-MT+0006LEBL V0202501N00511030001CN0180001N1+01121+00661101531ADDGA1021+006609999GA2071+030009999GF107991041081008001021001MA1101491101471MD1410001+9999MW1001REMSYN066AAXX  09214 08181 42568 72510 10112 20066 30147 40153 54000 84820;MET058LEBL 092100Z 25008KT 9999 SCT022 BKN100 11/07 Q1015 NOSIG;EQDQ01+000000PRSWM2
0145081810999992001010922004+41280+002060FM-15+0006LEBL V0203601N002112200019N0112651N1+01001+00601999999ADDGA1021+007509999GF102991999999999999999999MA1101491999999MW1001REMMET051LEBL 092200Z 36004KT 9999 FEW025 10/06 Q1015 NOSIG;EQDQ01+000000PRSWM2
0168081810999992001010923004+41280+002060FM-15+0006LEBL V0200201N002112200019N0112651N1+00801+00501999999ADDGA1021+006609999GA2021+012009999GF104991999999999999999999MA1101491999999MW1001REMMET058LEBL 092300Z 02004KT 9999 FEW022 SCT040 08/05 Q1015 NOSIG;EQDQ01+000000PRSWM2
0281081810999992001011000004+41280+002060SY-MT+0006LEBL V0203501N002112200019N0180001N1+00781+00521101531ADDAA199000091GA1021+006609999GA2021+013509999GF104991021051008001021001MA1101491101471MD1410001+9999MW1001REMSYN066AAXX  10004 08181 32568 43504 10078 20052 30147 40153 54000 82520;MET058LEBL 100000Z 35004KT 9999 FEW022 SCT045 08/05 Q1015 NOSIG;EQDQ01+000000PRSWM2Q02  00002PRCP99
0168081810999992001011001004+41280+002060FM-15+0006LEBL V0203101N002112200019N0112651N1+00701+00501999999ADDGA1021+006609999GA2021+013509999GF104991999999999999999999MA1101491999999MW1001REMMET058LEBL 100100Z 31004KT 9999 FEW022 SCT045 07/05 Q1015 NOSIG;EQDQ01+000000PRSWM2
0168081810999992001011002004+41280+002060FM-15+0006LEBL V0203501N002112200019N0112651N1+00701+00401999999ADDGA1021+006609999GA2021+015009999GF104991999999999999999999MA1101491999999MW1001REMMET058LEBL 100200Z 35004KT 9999 FEW022 SCT055 07/04 Q1015 NOSIG;EQDQ01+000000PRSWM2
0254081810999992001011003004+41280+002060SY-MT+0006LEBL V0203401N002112200019N0180001N1+00581+00351101511ADDGA1021+006609999GA2021+015009999GF103991021051008001021001MA1101491101451MD1710021+9999MW1001REMSYN066AAXX  10034 08181 42568 33404 10058 20035 30145 40151 57002 82520;MET058LEBL 100300Z 34004KT 9999 FEW022 SCT055 06/03 Q1015 NOSIG;EQDQ01+000000PRSWM2
0168081810999992001011004004+41280+002060FM-15+0006LEBL V0203501N001512200019N0112651N1+00601+00301999999ADDGA1021+007509999GA2021+015009999GF104991999999999999999999MA1101491999999MW1001REMMET058LEBL 100400Z 35003KT 9999 FEW025 SCT055 06/03 Q1015 NOSIG;EQDQ01+000000PRSWM2
0168081810999992001011005004+41280+002060FM-15+0006LEBL V0203401N003112200019N0112651N1+00601+00201999999ADDGA1021+007509999GA2021+024009999GF104991999999999999999999MA1101391999999MW1001REMMET058LEBL 100500Z 34006KT 9999 FEW025 SCT080 06/02 Q1014 NOSIG;EQDQ01+000000PRSWM2
0310081810999992001011006004+41280+002060SY-MT+0006LEBL V0203501N003112200019N0200001N1+00541+00191101521ADDAA199000091GA1021+007509999GA2021+021009999GF103991011081008001031001KA1120N+00501MA1101391101461MD1410001+9999MW1001REMSYN082AAXX  10064 08181 32570 33506 10054 20019 30146 40152 54000 81830 333 20050 55014;MET058LEBL 100600Z 35006KT 9999 FEW025 SCT075 05/02 Q1014 NOSIG;EQDQ01+000000PRSWM2Q02  00002PRCP99
0168081810999992001011007004+41280+002060FM-15+0006LEBL V0203601N001012200019N0112651N1+00601+00101999999ADDGA1021+007509999GA2021+021009999GF104991999999999999999999MA1101491999999MW1001REMMET058LEBL 100700Z 36002KT 9999 FEW025 SCT070 06/01 Q1015 NOSIG;EQDQ01+000000PRSWM2
0153081810999992001011008004+41280+002060FM-15+0006LEBL V0203301N002112200019N0112651N1+00501+00201999999ADDGA1021+007509999GF102991999999999999999999MA1101491999999MW1001REMMET059LEBL 100800Z 33004KT 250V350 9999 FEW025 05/02 Q1015 NOSIG;EQDQ01+000000PRSWM2
0231081810999992001011009004+41280+002060SY-MT+0006LEBL V0203401N003112200019N0400001N1+00661+00221101551ADDGA1021+007509999GF103991011021008001031081MA1101491101491MD1310031+9999MW1001REMSYN066AAXX  10094 08181 42582 33406 10066 20022 30149 40155 53003 81238;MET051LEBL 100900Z 34006KT 9999 FEW025 07/02 Q1015 NOSIG;EQDQ01+000000PRSWM2
0145081810999992001011010004+41280+002060FM-15+0006LEBL V0203001N002112200019N0112651N1+01101+00401999999ADDGA1021+007509999GF102991999999999999999999MA1101591999999MW1001REMMET051LEBL 101000Z 30004KT 9999 FEW025 11/04 Q1016 NOSIG;EQDQ01+000000PRSWM2
0153081810999992001011011004+41280+002060FM-15+0006LEBL V0202401N003112200019N0112651N1+01201+00601999999ADDGA1021+007509999GF102991999999999999999999MA1101591999999MW1001REMMET059LEBL 101100Z 24006KT 200V260 9999 FEW025 12/06 Q1016 NOSIG;EQDQ01+000000PRSWM2
0258081810999992001011012004+41280+002060SY-MT+0006LEBL V0202401N005112200019N0400001N1+01401+00501101591ADDAA199000091GA1021+007509999GF104991021081008001011081MA1101491101531MD1010041+9999MW1001REMSYN066AAXX  10124 08181 32582 42410 10140 20050 30153 40159 50004 82818;MET051LEBL 101200Z 24010KT 9999 FEW025 14/06 Q1015 NOSIG;EQDQ01+000000PRSWM2Q02  00002PRCP99
0168081810999992001011013004+41280+002060FM-15+0006LEBL V0202401N006212200019N0112651N1+01301+00601999999ADDGA1021+007509999GA2021+060009999GF104991999999999999999999MA1101491999999MW1001REMMET058LEBL 101300Z 24012KT 9999 FEW025 SCT200 13/06 Q1015 NOSIG;EQDQ01+000000PRSWM2
0191081810999992001011014004+41280+002060FM-15+0006LEBL V0202301N005110600019N0112651N1+01301+00701999999ADDGA1021+007509999GA2021+021009999GA3071+060009999GF107991999999999999999999MA1101391999999MW1001REMMET065LEBL 101400Z 23010KT 9999 FEW025 SCT070 BKN200 13/07 Q1014 NOSIG;EQDQ01+000000PRSWM2
0293081810999992001011015004+41280+002060SY-MT+0006LEBL V0202301N00621060001CN0400001N1+01341+00911101491ADDGA1021+007509999GA2021+021009999GA3071+060009999GF199999021081008001031061MA1101391101431MD1710101+9999MW1001REMSYN066AAXX  10154 08181 42582 62312 10134 20091 30143 40149 57010 82836;MET065LEBL 101500Z 23012KT 9999 FEW025 SCT070 BKN200 13/08 Q1014 NOSIG;EQDQ01+000062SCOTCVQ02+000000PRSWM2
0191081810999992001011016004+41280+002060FM-15+0006LEBL V0202301N004110600019N0112651N1+01401+00801999999ADDGA1021+007509999GA2021+021009999GA3071+060009999GF107991999999999999999999MA1101391999999MW1001REMMET065LEBL 101600Z 23008KT 9999 FEW025 SCT070 BKN200 14/08 Q1014 NOSIG;EQDQ01+000000PRSWM2
0168081810999992001011017004+41280+002060FM-15+0006LEBL V0202201N005112200019N0112651N1+01201+00901999999ADDGA1021+007509999GA2021+021009999GF104991999999999999999999MA1101491999999MW1001REMMET058LEBL 101700Z 22010KT 9999 FEW025 SCT070 12/09 Q1015 NOSIG;EQDQ01+000000PRSWM2
0304081810999992001011018004+41280+002060SY-MT+0006LEBL V0202301N004112200019N0300001N1+01201+00921101561ADDAA199000091GA1021+007509999GA2021+021009999GF104991011051008001031011KA1999M+01461MA1101491101501MD1310071+9999MW1001REMSYN076AAXX  10184 08181 32580 42308 10120 20092 30150 40156 53007 81531 333 10146;MET058LEBL 101800Z 23008KT 9999 FEW025 SCT070 12/09 Q1015 NOSIG;EQDQ01+000000PRSWM2Q02  00002PRCP99
0145081810999992001011019004+41280+002060FM-15+0006LEBL V0202301N003112200019N0112651N1+01101+00901999999ADDGA1021+009009999GF102991999999999999999999MA1101491999999MW1001REMMET051LEBL 101900Z 23006KT 9999 FEW030 11/09 Q1015 NOSIG;EQDQ01+000000PRSWM2
0145081810999992001011020004+41280+002060FM-15+0006LEBL V0202701N002112200019N0112651N1+01001+00801999999ADDGA1021+009009999GF102991999999999999999999MA1101591999999MW1001REMMET051LEBL 102000Z 27004KT 9999 FEW030 10/08 Q1016 NOSIG;EQDQ01+000000PRSWM2
0254081810999992001011021004+41280+002060SY-MT+0006LEBL V0203501N002112200019N0150001N1+00961+00661101641ADDGA1021+009009999GA2021+036009999GF104991011051008001031001MA1101591101561MD1210081+9999MW1001REMSYN066AAXX  10214 08181 42565 43504 10096 20066 30156 40164 52008 81530;MET058LEBL 102100Z 35004KT 9999 FEW030 SCT120 09/06 Q1016 NOSIG;EQDQ01+000000PRSWM2
0168081810999992001011022004+41280+002060FM-15+0006LEBL V0203401N002112200019N0112651N1+01001+00601999999ADDGA1021+007509999GA2021+036009999GF104991999999999999999999MA1101491999999MW1001REMMET058LEBL 102200Z 34004KT 9999 FEW025 SCT120 10/06 Q1015 NOSIG;EQDQ01+000000PRSWM2
0145081810999992001011023004+41280+002060FM-15+0006LEBL V0209999C000012200019N0112651N1+00801+00601999999ADDGA1021+007509999GF102991999999999999999999MA1101491999999MW1001REMMET051LEBL 102300Z 00000KT 9999 FEW025 08/06 Q1015 NOSIG;EQDQ01+000000PRSWM2
0281081810999992001011100004+41280+002060SY-MT+0006LEBL V0203501N002112200019N0120001N1+00641+00431101541ADDAA199000091GA1021+009009999GA2021+030009999GF104991011051008001031001MA1101491101461MD1710101+9999MW1001REMSYN066AAXX  11004 08181 32562 43504 10064 20043 30146 40154 57010 81530;MET058LEBL 110000Z 35004KT 9999 FEW030 SCT100 07/05 Q1015 NOSIG;EQDQ01+000000PRSWM2Q02  00002PRCP99
0168081810999992001011101004+41280+002060FM-15+0006LEBL V0203401N001012200019N0112651N1+00601+00501999999ADDGA1021+009009999GA2021+030009999GF104991999999999999999999MA1101491999999MW1001REMMET058LEBL 110100Z 34002KT 9999 FEW030 SCT100 06/05 Q1015 NOSIG;EQDQ01+000000PRSWM2
0145081810999992001011102004+41280+002060FM-15+0006LEBL V0203601N002112200019N0112651N1+00701+00501999999ADDGA1021+005409999GF102991999999999999999999MA1101491999999MW1001REMMET051LEBL 110200Z 36004KT 9999 FEW018 07/05 Q1015 NOSIG;EQDQ01+000000PRSWM2
0254081810999992001011103004+41280+002060SY-MT+0006LEBL V0203501N003112200019N0120001N1+00721+00451101501ADDGA1021+005409999GA2021+027009999GF104991011051008001011001MA1101491101421MD1710041+9999MW1001REMSYN066AAXX  11034 08181 42562 43506 10072 20045 30142 40150 57004 81510;MET058LEBL 110300Z 36006KT 9999 FEW018 SCT090 07/05 Q1015 NOSIG;EQDQ01+000000PRSWM2
0168081810999992001011104004+41280+002060FM-15+0006LEBL V0203501N002110270019N0112651N1+00801+00501999999ADDGA1021+006909999GA2071+027009999GF107991999999999999999999MA1101391999999MW1001REMMET058LEBL 110400Z 35004KT 9999 FEW023 BKN092 08/05 Q1014 NOSIG;EQDQ01+000000PRSWM2
0168081810999992001011105004+41280+002060FM-15+0006LEBL V0203501N002612200019N0112651N1+00701+00401999999ADDGA1021+007209999GA2021+024009999GF104991999999999999999999MA1101291999999MW1001REMMET058LEBL 110500Z 35005KT 9999 FEW024 SCT082 07/04 Q1013 NOSIG;EQDQ01+000000PRSWM2
0348081810999992001011106004+41280+002060SY-MT+0006LEBL V0203401N004112200019N0080001N1+00661+00381101411ADDAA199000091AY121061AY211061GA1021+002109999GA2021+024009999GF104991021071002501011001KA1120N+00501MA1101391101351MD1710091+9999MW1101REMSYN088AAXX  11064 08181 31358 43408 10066 20038 30135 40141 57009 71021 82710 333 20050 55073;MET058LEBL 110600Z 34008KT 8000 FEW007 SCT082 07/04 Q1014 NOSIG;EQDQ01+000000PRSWM2Q02  00002PRCP99Q03    003PRSWM1
0168081810999992001011107304+41280+002060FM-15+0006LEBL V0203501N002610033019N0060001N1+00801+00501999999ADDGA1021+001809999GA2071+003309999GF107991999999999999999999MA1101391999999MW1001REMMET058LEBL 110730Z 35005KT 6000 FEW006 BKN011 08/05 Q1014 NOSIG;EQDQ01+000000PRSWM2
0168081810999992001011108004+41280+002060FM-15+0006LEBL V0203301N004110033019N0060001N1+00801+00501999999ADDGA1021+002109999GA2071+003309999GF107991999999999999999999MA1101391999999MW1001REMMET058LEBL 110800Z 33008KT 6000 FEW007 BKN011 08/05 Q1014 NOSIG;EQDQ01+000000PRSWM2
0292081810999992001011109004+41280+002060SY-MT+0006LEBL V0203401N00311003601CN0070001N1+00861+00601101471ADDAY121031AY221031GA1021+002709999GA2071+003609999GF107991071061002501001001MA1101391101411MD1210061+9999MW1101REMSYN072AAXX  11094 08181 41357 73406 10086 20060 30141 40147 52006 71022 87600;MET058LEBL 110900Z 34008KT 6000 SCT009 BKN012 09/06 Q1014 NOSIG;EQDQ01+000000PRSWM2Q02    003PRSWM1
0145081810999992001011110004+41280+002060FM-15+0006LEBL V0203401N004610048019N0060001N1+01001+00601999999ADDGA1071+004809999GF107991999999999999999999MA1101491999999MW1001REMMET051LEBL 111000Z 34009KT 6000 BKN016 10/06 Q1015 NOSIG;EQDQ01+000000PRSWM2
0184081810999992001011111304+41280+002060FM-15+0006LEBL V0203601N001512200019N9999999N1+01401+00801999999ADDGA1021+002409999GA2021+033009999GF104991999999999999999999MA1101391999999MW1001REMMET058LEBL 111130Z 36003KT 6000 FEW008 SCT110 14/08 Q1014 NOSIG;EQDQ01+060002VODIS Q02+000000PRSWM2
0319081810999992001011112004+41280+002060SY-MT+0006LEBL V0203301N002110360019N0070001N1+01361+00881101471ADDAA199000091AY121061AY221061GA1021+002709999GA2071+036009999GF107991021061002501071021MA1101391101411MD1410001+9999MW1051REMSYN072AAXX  11124 08181 31357 73304 10136 20088 30141 40147 54000 70522 82672;MET058LEBL 111200Z 36003KT 7000 FEW009 BKN120 14/09 Q1014 NOSIG;EQDQ01+000000PRSWM2Q02  00002PRCP99Q03    003PRSWM1
0168081810999992001011113004+41280+002060FM-15+0006LEBL V0201701N002610540019N0060001N1+01401+01001999999ADDGA1021+007809999GA2071+054009999GF107991999999999999999999MA1101291999999MW1001REMMET058LEBL 111300Z 17005KT 6000 FEW026 BKN180 14/10 Q1013 NOSIG;EQDQ01+000000PRSWM2
0176081810999992001011114004+41280+002060FM-15+0006LEBL V0201601N002110480019N0060001N1+01301+01101999999ADDGA1021+003009999GA2071+048009999GF107991999999999999999999MA1101291999999MW1001REMMET066LEBL 111400Z 16004KT 120V210 6000 SCT010 BKN160 13/11 Q1013 NOSIG;EQDQ01+000000PRSWM2
0292081810999992001011115004+41280+002060SY-MT+0006LEBL V0201401N00211051001CN0060001N1+01301+01031101251ADDAY121031AY221031GA1021+003609999GA2071+051009999GF107991031061004501021051MA1101191101171MD1710221+9999MW1101REMSYN072AAXX  11154 08181 41456 71404 10130 20103 30117 40125 57022 71022 83625;MET058LEBL 111500Z 14004KT 6000 SCT012 BKN170 13/11 Q1012 NOSIG;EQDQ01+000000PRSWM2Q02    003PRSWM1
0168081810999992001011116004+41280+002060FM-15+0006LEBL V0201501N002110390019N0060001N1+01301+01001999999ADDGA1021+003609999GA2071+039009999GF107991999999999999999999MA1101191999999MW1001REMMET058LEBL 111600Z 15004KT 6000 SCT012 BKN130 13/10 Q1012 NOSIG;EQDQ01+000000PRSWM2
0168081810999992001011117004+41280+002060FM-15+0006LEBL V0201001N002110540019N0060001N1+01201+01001999999ADDGA1021+004509999GA2071+054009999GF107991999999999999999999MA1101191999999MW1001REMMET058LEBL 111700Z 10004KT 6000 SCT015 BKN180 12/10 Q1012 NOSIG;EQDQ01+000000PRSWM2
0342081810999992001011118004+41280+002060SY-MT+0006LEBL V0200901N00211054001CN0060001N1+01101+00931101251ADDAA199000091AY121061AY221061GA1021+003609999GA2071+054009999GF107991031061004501021051KA1999M+01461MA1101191101171MD1410001+9999MW1101REMSYN082AAXX  11184 08181 31456 70904 10110 20093 30117 40125 54000 71022 83625 333 10146;MET058LEBL 111800Z 08004KT 6000 SCT012 BKN180 11/10 Q1012 NOSIG;EQDQ01+000000PRSWM2Q02  00002PRCP99Q03    003PRSWM1
0211081810999992001011119004+41280+002060FM-15+0006LEBL V0200701N002110540019N0060001N1+01201+01001999999ADDGA1021+003009999GA2021+021009999GA3071+054009999GF107991999999999999999999MA1101291999999MW1611REMMET069LEBL 111900Z 07004KT 6000 -RA SCT010 SCT070 BKN180 12/10 Q1013 NOSIG;EQDQ01+000003PRSWM1Q02    003PRSWM1
0211081810999992001011120004+41280+002060FM-15+0006LEBL V0200701N003110390019N0060001N1+01201+01001999999ADDGA1021+003009999GA2021+018009999GA3071+039009999GF107991999999999999999999MA1101291999999MW1611REMMET069LEBL 112000Z 07006KT 6000 -RA FEW010 SCT060 BKN130 12/10 Q1013 NOSIG;EQDQ01+000003PRSWM1Q02    003PRSWM1
0314081810999992001011121004+41280+002060SY-MT+0006LEBL V0203601N00211039001CN0060001N1+01201+01081101281ADDAY121031AY221031GA1021+003009999GA2021+018009999GA3071+039009999GF107991031061004501021081MA1101191101221MD1410001+9999MW1501REMSYN072AAXX  11214 08181 41456 73604 10120 20108 30122 40128 54000 75022 83628;MET064LEBL 112100Z 34004KT 6000 FEW010 SCT060 BKN130 12/11 Q1012 RERA;EQDQ01+000000PRSWM2Q02    003PRSWM1
0168081810999992001011122004+41280+002060FM-15+0006LEBL V0203601N001010300019N0070001N1+01201+01001999999ADDGA1021+006009999GA2071+030009999GF107991999999999999999999MA1101191999999MW1001REMMET058LEBL 112200Z 36002KT 7000 FEW020 BKN100 12/10 Q1012 NOSIG;EQDQ01+000000PRSWM2
0168081810999992001011123004+41280+002060FM-15+0006LEBL V0203601N002610330019N0070001N1+01201+01001999999ADDGA1021+006009999GA2071+033009999GF107991999999999999999999MA1101191999999MW1001REMMET058LEBL 112300Z 36005KT 7000 FEW020 BKN110 12/10 Q1012 NOSIG;EQDQ01+000000PRSWM2
0309081810999992001011200004+41280+002060SY-MT+0006LEBL V0203601N00211033001CN0050001N1+01141+01061101281ADDAA106000791AY151061AY221061GA1021+007509999GA2071+033009999GF107991031081008001071051MA1101191101221MD1410001+9999MW1101REMSYN078AAXX  12004 08181 11550 73604 10114 20106 30122 40128 54000 69901 71052 83875;MET058LEBL 120000Z 36004KT 6000 FEW025 BKN110 11/10 Q1012 NOSIG;EQDQ01+000000PRSWM2Q02    003PRSWM1
0168081810999992001011201004+41280+002060FM-15+0006LEBL V0200201N002110270019N0060001N1+01101+01001999999ADDGA1021+007509999GA2071+027009999GF107991999999999999999999MA1101191999999MW1001REMMET058LEBL 120100Z 02004KT 6000 FEW025 BKN090 11/10 Q1012 NOSIG;EQDQ01+000000PRSWM2
0168081810999992001011202004+41280+002060FM-15+0006LEBL V0203601N004110270019N0060001N1+01101+01001999999ADDGA1021+007509999GA2071+027009999GF107991999999999999999999MA1101081999999MW1001REMMET058LEBL 120200Z 36008KT 6000 FEW025 BKN090 11/10 Q1011 NOSIG;EQDQ01+000000PRSWM2
0292081810999992001011203004+41280+002060SY-MT+0006LEBL V0200201N00311042001CN0080001N1+01041+00921101071ADDAY121031AY251031GA1021+007509999GA2071+042009999GF107991031081008001071051MA1101021101011MD1810211+9999MW1101REMSYN072AAXX  12034 08181 41558 70206 10104 20092 30101 40107 58021 71025 83875;MET058LEBL 120300Z 02005KT 8000 FEW025 BKN140 10/08 Q1010 NOSIG;EQDQ01+000000PRSWM2Q02    003PRSWM1
0168081810999992001011204004+41280+002060FM-15+0006LEBL V0200201N003110360019N0080001N1+01001+00801999999ADDGA1021+007509999GA2071+036009999GF107991999999999999999999MA1101021999999MW1001REMMET058LEBL 120400Z 02006KT 8000 FEW025 BKN120 10/08 Q1010 NOSIG;EQDQ01+000000PRSWM2
0168081810999992001011205004+41280+002060FM-15+0006LEBL V0200101N002110360019N0080001N1+01101+00901999999ADDGA1021+002409999GA2071+036009999GF107991999999999999999999MA1101021999999MW1001REMMET058LEBL 120500Z 01004KT 8000 FEW008 BKN120 11/09 Q1010 NOSIG;EQDQ01+000000PRSWM2
0168081810999992001011206004+41280+002060FM-15+0006LEBL V0200201N004110360019N0070001N1+01001+00801999999ADDGA1021+002409999GA2071+036009999GF107991999999999999999999MA1101021999999MW1001REMMET058LEBL 120600Z 02008KT 7000 SCT008 BKN120 10/08 Q1010 NOSIG;EQDQ01+000000PRSWM2
0168081810999992001011207004+41280+002060FM-15+0006LEBL V0200201N003110330019N0070001N1+01001+00801999999ADDGA1021+003009999GA2071+033009999GF107991999999999999999999MA1101021999999MW1001REMMET058LEBL 120700Z 02006KT 7000 FEW010 BKN110 10/08 Q1010 NOSIG;EQDQ01+000000PRSWM2
0176081810999992001011208004+41280+002060FM-15+0006LEBL V0200101N003112200019N0080001N1+01001+00801999999ADDGA1021+004509999GA2021+033009999GF104991999999999999999999MA1101021999999MW1001REMMET066LEBL 120800Z 01006KT 350V050 8000 FEW015 SCT115 10/08 Q1010 NOSIG;EQDQ01+000000PRSWM2
0292081810999992001011209004+41280+002060SY-MT+0006LEBL V0200201N00411033001CN0080001N1+01081+00841100981ADDAY121031AY221031GA1021+006009999GA2071+033009999GF107991021081008001001051MA1101021100901MD1810091+9999MW1101REMSYN072AAXX  12094 08181 41558 70208 10108 20084 30090 40098 58009 71022 82805;MET058LEBL 120900Z 01006KT 8000 FEW020 BKN115 12/08 Q1010 NOSIG;EQDQ01+000000PRSWM2Q02    003PRSWM1
0176081810999992001011210004+41280+002060FM-15+0006LEBL V0200601N003112200019N0080001N1+01301+01001999999ADDGA1021+004509999GA2021+009009999GF104991999999999999999999MA1101081999999MW1001REMMET066LEBL 121000Z 06006KT 360V100 8000 FEW015 SCT030 13/10 Q1011 NOSIG;EQDQ01+000000PRSWM2
0168081810999992001011211004+41280+002060FM-15+0006LEBL V0200701N008712200019N0112651N1+01501+01101999999ADDGA1021+005409999GA2021+009009999GF104991999999999999999999MA1101081999999MW1001REMMET058LEBL 121100Z 07017KT 9999 FEW018 SCT030 15/11 Q1011 NOSIG;EQDQ01+000000PRSWM2
0258081810999992001011212004+41280+002060SY-MT+0006LEBL V0200701N010312200019N0200001N1+01501+01051101021ADDAA199000091GA1021+007509999GF103991011081008001001021MA1101021100941MD1310041+9999MW1001REMSYN066AAXX  12124 08181 32570 30720 10150 20105 30094 40102 53004 81802;MET051LEBL 121200Z 07020KT 9999 FEW025 15/10 Q1010 NOSIG;EQDQ01+000000PRSWM2Q02  00002PRCP99
0168081810999992001011213004+41280+002060FM-15+0006LEBL V0200801N008712200019N0112651N1+01501+01101999999ADDGA1021+007509999GA2021+054009999GF104991999999999999999999MA1100911999999MW1001REMMET058LEBL 121300Z 08017KT 9999 FEW025 SCT180 15/11 Q1009 NOSIG;EQDQ01+000000PRSWM2
0168081810999992001011214004+41280+002060FM-15+0006LEBL V0200901N008212200019N0112651N1+01401+01101999999ADDGA1021+007509999GA2021+054009999GF104991999999999999999999MA1100911999999MW1001REMMET058LEBL 121400Z 09016KT 9999 FEW025 SCT180 14/11 Q1009 NOSIG;EQDQ01+000000PRSWM2
0254081810999992001011215004+41280+002060SY-MT+0006LEBL V0200801N008210360019N0200001N1+01341+01161100861ADDGA1021+006009999GA2021+024009999GF107991041081008001071001MA1100911100781MD1710091+9999MW1001REMSYN066AAXX  12154 08181 42570 70816 10134 20116 30078 40086 57009 84870;MET058LEBL 121500Z 08016KT 9999 SCT020 SCT080 13/11 Q1009 NOSIG;EQDQ01+000000PRSWM2
0191081810999992001011216004+41280+002060FM-15+0006LEBL V0200801N008210600019N0080001N1+01301+01101999999ADDGA1021+003609999GA2021+007509999GA3071+060009999GF107991999999999999999999MA1100911999999MW1001REMMET065LEBL 121600Z 08016KT 8000 FEW012 SCT025 BKN200 13/11 Q1009 NOSIG;EQDQ01+000000PRSWM2
0168081810999992001011217004+41280+002060FM-15+0006LEBL V0200801N007210600019N0080001N1+01201+01101999999ADDGA1021+007509999GA2071+060009999GF107991999999999999999999MA1101021999999MW1001REMMET058LEBL 121700Z 08014KT 8000 SCT025 BKN200 12/11 Q1010 NOSIG;EQDQ01+000000PRSWM2
0327081810999992001011218004+41280+002060SY-MT+0006LEBL V0200801N00621063001CN0080001N1+01221+01111101041ADDAA199000091GA1021+003609999GA2021+007509999GA3071+063009999GF107991041081008001001021KA1999M+01521MA1101021100961MD1510181+9999MW1001REMSYN076AAXX  12184 08181 32558 70812 10122 20111 30096 40104 55018 84802 333 10152;MET065LEBL 121800Z 08012KT 8000 FEW012 SCT025 BKN210 12/11 Q1010 NOSIG;EQDQ01+000000PRSWM2Q02  00002PRCP99
0168081810999992001011219004+41280+002060FM-15+0006LEBL V0200801N004110600019N0112651N1+01201+01001999999ADDGA1021+007509999GA2071+060009999GF107991999999999999999999MA1101081999999MW1001REMMET058LEBL 121900Z 08008KT 9999 SCT025 BKN200 12/10 Q1011 NOSIG;EQDQ01+000000PRSWM2
0168081810999992001011220004+41280+002060FM-15+0006LEBL V0200701N006212200019N0112651N1+01201+01001999999ADDGA1021+006009999GA2021+013509999GF104991999999999999999999MA1101191999999MW1001REMMET058LEBL 122000Z 07012KT 9999 SCT020 SCT045 12/10 Q1012 NOSIG;EQDQ01+000000PRSWM2
0247081810999992001011221004+41280+002060SY-MT+0006LEBL V0200701N006212200019N0100001N1+01201+01011101221ADDGA1021+006609999GF199999011081008001001001MA1101191101141MD1210181+9999MW1001REMSYN066AAXX  12214 08181 42560 10712 10120 20101 30114 40122 52018 81800;MET051LEBL 122100Z 07012KT 9999 FEW022 11/09 Q1012 NOSIG;EQDQ01+000012SCOTCVQ02+000000PRSWM2
0168081810999992001011222004+41280+002060FM-15+0006LEBL V0200701N006212200019N0112651N1+01101+00901999999ADDGA1021+006609999GA2021+015009999GF104991999999999999999999MA1101191999999MW1001REMMET058LEBL 122200Z 07012KT 9999 FEW022 SCT050 11/09 Q1012 NOSIG;EQDQ01+000000PRSWM2
0168081810999992001011223004+41280+002060FM-15+0006LEBL V0200101N002112200019N0112651N1+01001+00701999999ADDGA1021+006609999GA2021+054009999GF104991999999999999999999MA1101191999999MW1001REMMET058LEBL 122300Z 01004KT 9999 FEW022 SCT180 10/07 Q1012 NOSIG;EQDQ01+000000PRSWM2
0297081810999992001011300004+41280+002060SY-MT+0006LEBL V0200101N003110360019N0100001N1+01061+00941101221ADDAA199000091GA1021+006609999GA2021+060009999GF105991011051008001071051MA1101191101141MD1410001+9999MW1001REMSYN066AAXX  13004 08181 32560 50106 10106 20094 30114 40122 51000 81575;MET058LEBL 130000Z 01006KT 9999 FEW022 SCT200 10/07 Q1012 NOSIG;EQDQ01+000012APCTENQ02+000000PRSWM2Q03  00002PRCP99
0168081810999992001011301004+41280+002060FM-15+0006LEBL V0203601N003112200019N0112651N1+01001+00701999999ADDGA1021+006609999GA2021+015009999GF104991999999999999999999MA1101191999999MW1001REMMET058LEBL 130100Z 36006KT 9999 FEW022 SCT050 10/07 Q1012 NOSIG;EQDQ01+000000PRSWM2
0145081810999992001011302004+41280+002060FM-15+0006LEBL V0203601N004112200019N0112651N1+00901+00601999999ADDGA1021+006609999GF102991999999999999999999MA1101191999999MW1001REMMET051LEBL 130200Z 36008KT 9999 FEW022 09/06 Q1012 NOSIG;EQDQ01+000000PRSWM2
0254081810999992001011303004+41280+002060SY-MT+0006LEBL V0203601N003112200019N0100001N1+01001+00791101261ADDGA1021+007209999GA2021+060009999GF104991011051008001071051MA1101191101181MD1310041+9999MW1001REMSYN066AAXX  13034 08181 42560 43606 10100 20079 30118 40126 53004 81575;MET058LEBL 130300Z 36006KT 9999 FEW024 SCT200 09/06 Q1012 NOSIG;EQDQ01+000000PRSWM2
0168081810999992001011304004+41280+002060FM-15+0006LEBL V0203501N003612200019N0112651N1+00801+00601999999ADDGA1021+007209999GA2021+030009999GF104991999999999999999999MA1101191999999MW1001REMMET058LEBL 130400Z 35007KT 9999 FEW024 SCT100 08/06 Q1012 NOSIG;EQDQ01+000000PRSWM2
0168081810999992001011305004+41280+002060FM-15+0006LEBL V0200301N003112200019N0112651N1+00901+00601999999ADDGA1021+007209999GA2021+027009999GF104991999999999999999999MA1101291999999MW1001REMMET058LEBL 130500Z 03006KT 9999 FEW024 SCT090 09/06 Q1013 NOSIG;EQDQ01+000000PRSWM2
0326081810999992001011306004+41280+002060SY-MT+0006LEBL V0203601N00311024001CN0100001N1+00981+00781101331ADDAA199000091GA1021+007209999GA2071+024009999GF199999021081008001071021KA1120N+00981MA1101291101251MD1210071+9999MW1001REMSYN082AAXX  13064 08181 32560 63606 10098 20078 30125 40133 52007 82872 333 20098 55056;MET058LEBL 130600Z 35008KT 9999 SCT024 BKN080 09/06 Q1013 NOSIG;EQDQ01+000062SCOTCVQ02+000000PRSWM2Q03  00002PRCP99
0168081810999992001011307004+41280+002060FM-15+0006LEBL V0200101N003110240019N0112651N1+00901+00601999999ADDGA1021+007209999GA2071+024009999GF107991999999999999999999MA1101391999999MW1001REMMET058LEBL 130700Z 01006KT 9999 SCT024 BKN080 09/06 Q1014 NOSIG;EQDQ01+000000PRSWM2
0188081810999992001011308004+41280+002060FM-15+0006LEBL V0203601N003110210019N0080001N1+00901+00601999999ADDGA1021+007209999GA2071+021009999GF107991999999999999999999MA1101391999999MW1611REMMET062LEBL 130800Z 36006KT 8000 -RA SCT024 BKN070 09/06 Q1014 NOSIG;EQDQ01+000003PRSWM1Q02    003PRSWM1
0270081810999992001011309004+41280+002060SY-MT+0006LEBL V0203501N00411021001CN0120001N1+01001+00701101561ADDGA1021+007509999GA2071+021009999GF199999021081008001071021MA1101491101501MD1210191+9999MW1001REMSYN066AAXX  13094 08181 42562 63508 10100 20070 30150 40156 52019 82872;MET058LEBL 130900Z 35006KT 9999 FEW025 BKN070 10/07 Q1015 NOSIG;EQDQ01+000062SCOTCVQ02+000000PRSWM2
0168081810999992001011310004+41280+002060FM-15+0006LEBL V0203501N003110210019N0112651N1+01101+00701999999ADDGA1021+007509999GA2071+021009999GF107991999999999999999999MA1101491999999MW1001REMMET058LEBL 131000Z 35006KT 9999 FEW025 BKN070 11/07 Q1015 NOSIG;EQDQ01+000000PRSWM2
0168081810999992001011310554+41280+002060FM-15+0006LEBL V0203501N003110210019N0112651N1+01101+00701999999ADDGA1021+007509999GA2071+021009999GF107991999999999999999999MA1101491999999MW1001REMMET058LEBL 131055Z 35006KT 9999 FEW025 BKN070 11/07 Q1015 NOSIG;EQDQ01+000000PRSWM2
0325081810999992001011312004+41280+002060SY-MT+0006LEBL V0203601N00101024001CN0150001N1+01501+00961101571ADDAA106000791AY141061AY221061GA1021+007509999GA2071+024009999GF199999021081008001071021MA1101491101511MD1210011+9999MW1021REMSYN078AAXX  13124 08181 11565 63602 10150 20096 30151 40157 52001 69901 70242 82872;MET058LEBL 131200Z 36002KT 9999 FEW025 BKN080 14/06 Q1015 NOSIG;EQDQ01+000062SCOTCVQ02+000000PRSWM2Q03    003PRSWM1
0168081810999992001011313104+41280+002060FM-15+0006LEBL V0201001N001010240019N0112651N1+01401+00801999999ADDGA1021+007509999GA2071+024009999GF107991999999999999999999MA1101391999999MW1001REMMET058LEBL 131310Z 10002KT 9999 FEW025 BKN080 14/08 Q1014 NOSIG;EQDQ01+000000PRSWM2
0168081810999992001011314004+41280+002060FM-15+0006LEBL V0200901N003110240019N0112651N1+01301+00801999999ADDGA1021+006009999GA2071+024009999GF107991999999999999999999MA1101391999999MW1001REMMET058LEBL 131400Z 09006KT 9999 FEW020 BKN080 13/08 Q1014 NOSIG;EQDQ01+000000PRSWM2
0254081810999992001011315004+41280+002060SY-MT+0006LEBL V0202501N00311012001CN0150001N1+01321+00971101561ADDGA1021+006009999GA2071+012009999GF107991021081008001071021MA1101491101501MD1510011+9999MW1001REMSYN066AAXX  13154 08181 42565 72506 10132 20097 30150 40156 55001 82872;MET058LEBL 131500Z 25006KT 9999 FEW020 BKN040 13/09 Q1015 NOSIG;EQDQ01+000000PRSWM2
0168081810999992001011316004+41280+002060FM-15+0006LEBL V0201501N001010180019N0112651N1+01301+00901999999ADDGA1021+006009999GA2071+018009999GF107991999999999999999999MA1101491999999MW1001REMMET058LEBL 131600Z 15002KT 9999 FEW020 BKN060 13/09 Q1015 NOSIG;EQDQ01+000000PRSWM2
0167081810999992001011317004+41280+002060FM-15+0006LEBL V0200701N002110210019N0112651N1+01201+00901999999ADDGA1021+006009999GA2071+021009999GF107991999999999999999999MA1101591999999MW1001REMMET057LEBL 131700Z 07004KT 9999 FEW020 BKN070 12/09 Q1016 RERA;EQDQ01+000000PRSWM2
0348081810999992001011318004+41280+002060SY-MT+0006LEBL V0200901N00511015001CN0150001N1+01301+01071101751ADDAA112000391AY121061AY221061GA1021+007509999GA2071+015009999GF199999021081008001071001KA1999M+01551MA1101591101691MD1210191+9999MW1501REMSYN088AAXX  13184 08181 11565 60910 10130 20107 30169 40175 52019 69932 75022 82870 333 10155;MET058LEBL 131800Z 09010KT 9999 FEW025 BKN050 12/09 Q1016 NOSIG;EQDQ01+000062SCOTCVQ02+000000PRSWM2Q03    003PRSWM1
0188081810999992001011319004+41280+002060FM-15+0006LEBL V0203501N002110150019N0112651N1+01101+00901999999ADDGA1021+007509999GA2071+015009999GF107991999999999999999999MA1101691999999MW1611REMMET062LEBL 131900Z 35004KT 9999 -RA FEW025 BKN050 11/09 Q1017 NOSIG;EQDQ01+000003PRSWM1Q02    003PRSWM1
0168081810999992001011320004+41280+002060FM-15+0006LEBL V0203501N003110180019N0112651N1+01001+00801999999ADDGA1021+007509999GA2071+018009999GF107991999999999999999999MA1101691999999MW1001REMMET058LEBL 132000Z 35006KT 9999 FEW025 BKN060 10/08 Q1017 NOSIG;EQDQ01+000000PRSWM2
0297081810999992001011321004+41280+002060SY-MT+0006LEBL V0203601N00211018001CN0150001N1+01021+00771101791ADDAY151031AY221031GA1021+007509999GA2071+018009999GF107991021081008001071021MA1101691101711MD1210041+9999MW1201REMSYN072AAXX  13214 08181 41565 73604 10102 20077 30171 40179 52004 72052 82872;MET063LEBL 132100Z 36005KT 9999 FEW025 BKN060 10/08 Q1017 REDZ NOSIG;EQDQ01+000000PRSWM2Q02    003PRSWM1
0168081810999992001011322004+41280+002060FM-15+0006LEBL V0203501N003110180019N0112651N1+01001+00801999999ADDGA1021+007509999GA2071+018009999GF107991999999999999999999MA1101801999999MW1001REMMET058LEBL 132200Z 35006KT 9999 FEW025 BKN060 10/08 Q1018 NOSIG;EQDQ01+000000PRSWM2
0168081810999992001011323004+41280+002060FM-15+0006LEBL V0200101N003110180019N0112651N1+01001+00801999999ADDGA1021+007509999GA2071+018009999GF107991999999999999999999MA1101801999999MW1001REMMET058LEBL 132300Z 01006KT 9999 FEW025 BKN060 10/08 Q1018 NOSIG;EQDQ01+000000PRSWM2
0304081810999992001011400004+41280+002060SY-MT+0006LEBL V0203501N00411018001CN0100001N1+01001+00811101741ADDAA106000591AY121061AY221061GA1021+006009999GA2071+018009999GF107991021081008001071001MA1101801101661MD1010051+9999MW1501MW2811REMSYN078AAXX  14004 08181 11560 73508 10100 20081 30166 40174 50005 69941 75022 82870;MET063LEBL 140000Z 35006KT 9999 SHRA FEW020 BKN060 10/08 Q1018 NOSIG;EQDQ01    003PRSWM1
0168081810999992001011401004+41280+002060FM-15+0006LEBL V0203501N003110210019N0112651N1+01001+00801999999ADDGA1021+007509999GA2071+021009999GF107991999999999999999999MA1101691999999MW1001REMMET058LEBL 140100Z 35006KT 9999 FEW025 BKN070 10/08 Q1017 NOSIG;EQDQ01+000000PRSWM2
0168081810999992001011402004+41280+002060FM-15+0006LEBL V0203501N002110150019N0112651N1+00901+00801999999ADDGA1021+007509999GA2071+015009999GF107991999999999999999999MA1101691999999MW1001REMMET058LEBL 140200Z 35004KT 9999 FEW025 BKN050 09/08 Q1017 NOSIG;EQDQ01+000000PRSWM2
0308081810999992001011403004+41280+002060SY-MT+0006LEBL V0203401N00211018001CN0100001N1+00921+00841101741ADDAY151031AY221031GA1021+006009999GA2071+018009999GF107991021081008001071001MA1101691101661MD1410001+9999MW1201REMSYN072AAXX  14034 08181 41560 73404 10092 20084 30166 40174 56000 72052 82870;MET058LEBL 140300Z 32002KT 9999 FEW020 BKN060 09/08 Q1017 NOSIG;EQDQ01+000062APCTENQ02+000000PRSWM2Q03    003PRSWM1
0168081810999992001011404004+41280+002060FM-15+0006LEBL V0200101N002110120019N0112651N1+00901+00801999999ADDGA1021+007509999GA2071+012009999GF107991999999999999999999MA1101691999999MW1001REMMET058LEBL 140400Z 01004KT 9999 FEW025 BKN040 09/08 Q1017 NOSIG;EQDQ01+000000PRSWM2
0168081810999992001011405004+41280+002060FM-15+0006LEBL V0203601N002110105019N0080001N1+00901+00801999999ADDGA1021+003009999GA2071+010509999GF107991999999999999999999MA1101691999999MW1001REMMET058LEBL 140500Z 36004KT 8000 FEW010 BKN035 09/08 Q1017 NOSIG;EQDQ01+000000PRSWM2
0315081810999992001011406004+41280+002060SY-MT+0006LEBL V0209999C00001011401CN0080001N1+00941+00781101741ADDAA112002091AY121061AY221061GA1071+011409999GF107991061081012501071001KA1120N+00921MA1101691101661MD1410001+9999MW1101REMSYN094AAXX  14064 08181 11658 70000 10094 20078 30166 40174 54000 60022 71022 86870 333 20092 55012;MET051LEBL 140600Z 00000KT 8000 BKN038 09/08 Q1017 NOSIG;EQDQ01+000000PRSWM2Q02    003PRSWM1
0168081810999992001011407004+41280+002060FM-15+0006LEBL V0200101N001510099019N0080001N1+00901+00801999999ADDGA1021+006909999GA2071+009909999GF107991999999999999999999MA1101691999999MW1001REMMET058LEBL 140700Z 01003KT 8000 FEW023 BKN033 09/08 Q1017 NOSIG;EQDQ01+000000PRSWM2
0191081810999992001011408004+41280+002060FM-15+0006LEBL V0203601N001010300019N0080001N1+01001+00801999999ADDGA1021+007509999GA2021+013509999GA3071+030009999GF107991999999999999999999MA1101801999999MW1001REMMET065LEBL 140800Z 36002KT 8000 FEW025 SCT045 BKN100 10/08 Q1018 NOSIG;EQDQ01+000000PRSWM2
0315081810999992001011409004+41280+002060SY-MT+0006LEBL V0203601N00101030001CN0060001N1+00981+00811101841ADDAY121031AY221031GA1021+003009999GA2021+010509999GA3071+030009999GF108991031081002501071001MA1101801101781MD1210041+9999MW1101REMSYN072AAXX  14094 08181 41356 83602 10098 20081 30178 40184 52004 71022 83870;MET065LEBL 140900Z 09002KT 6000 FEW010 SCT035 BKN100 10/08 Q1018 NOSIG;EQDQ01+000000PRSWM2Q02    003PRSWM1
0211081810999992001011410004+41280+002060FM-15+0006LEBL V0201301N003610300019N0070001N1+01001+00901999999ADDGA1021+003609999GA2021+009009999GA3071+030009999GF107991999999999999999999MA1101801999999MW1611REMMET069LEBL 141000Z 13007KT 7000 -RA FEW012 SCT030 BKN100 10/09 Q1018 NOSIG;EQDQ01+000003PRSWM1Q02    003PRSWM1
0212081810999992001011411004+41280+002060FM-15+0006LEBL V0200901N004110060019N0030001N1+00901+00801999999ADDGA1021+002109999GA2071+006009999GA3081+024009999GF108991999999999999999999MA1101901999999MW1811REMMET070LEBL 141100Z 09008KT 3000 SHRA SCT007 BKN020 OVC080 09/08 Q1019 NOSIG;EQDQ01+000003PRSWM1Q02    003PRSWM1
0210081810999992001011412004+41280+002060FM-15+0006LEBL V0200801N003110105019N0040001N1+00901+00801999999ADDGA1021+002709999GA2071+010509999GA3081+024009999GF108991999999999999999999MA1101901999999MW1631REMMET068LEBL 141200Z 08006KT 4000 RA SCT009 BKN035 OVC080 09/08 Q1019 NOSIG;EQDQ01+000003PRSWM1Q02    003PRSWM1
0211081810999992001011413004+41280+002060FM-15+0006LEBL V0201201N003110270019N0050001N1+00901+00701999999ADDGA1021+006009999GA2021+012009999GA3071+027009999GF107991999999999999999999MA1101901999999MW1611REMMET069LEBL 141300Z 12006KT 5000 -RA FEW020 SCT040 BKN090 09/07 Q1019 NOSIG;EQDQ01+000003PRSWM1Q02    003PRSWM1
0190081810999992001011414004+41280+002060FM-15+0006LEBL V0201201N002110270019N0080001N1+01001+00601999999ADDGA1021+007509999GA2021+012009999GA3071+027009999GF107991999999999999999999MA1101901999999MW1001REMMET064LEBL 141400Z 12004KT 8000 FEW025 SCT040 BKN090 10/06 Q1019 RERA;EQDQ01+000000PRSWM2
0311081810999992001011415004+41280+002060SY-MT+0006LEBL V0200901N002110120019N0100001N1+00971+00651101901ADDAY161031AY251031GA1021+008409999GA2071+012009999GA3071+027009999GF108991061081008001071999MA1101901101841MD1610041+9999MW1511REMSYN072AAXX  14154 08181 41560 80904 10097 20065 30184 40190 56004 75165 8687/;MET077LEBL 141500Z 08004KT 020V120 9999 -DZ SCT028 BKN040 BKN090 10/07 Q1019 NOSIG;EQDQ01    003PRSWM1
